:020000040800F2
:1000000038500020E902000861360008472B00083C
:100010006135000851070008894100080000000010
:10002000000000000000000000000000290200089D
:10003000390C000800000000850200085D3A000845
:100040000303000803030008030300080303000878
:100050000303000803030008030300080303000868
:100060000303000803030008030300080303000858
:100070000303000803030008030300080303000848
:100080000303000803030008030300080303000838
:100090000303000803030008030300080303000828
:1000A00003030008030300082D3B000803030008B6
:1000B000030300084D3B0008593B000803030008F8
:1000C00003030008030300080303000803030008F8
:1000D00003030008314100083D4100084941000880
:1000E0000303000803030008030300087D3B000826
:1000F00003030008030300080303000803030008C8
:100100000303000803030008653B0008030300081D
:10011000BD3E00080303000803030008713B00080C
:100120000303000803030008030300080303000897
:100130000303000803030008030300080303000887
:100140000303000803030008030300080303000877
:100150000303000803030008B10B000803030008B1
:100160000303000803030008030300080303000857
:100170000303000803030008030300080000000055
:10018000030300080303000800F002F800F03CF845
:100190000AA090E8000C82448344AAF10107DA45E2
:1001A00001D100F031F8AFF2090EBAE80F0013F0F8
:1001B000010F18BFFB1A43F001031847D874000061
:1001C000F8740000103A24BF78C878C1FAD85207F2
:1001D00024BF30C830C144BF04680C6070470000C1
:1001E0000023002400250026103A28BF78C1FBD840
:1001F000520728BF30C148BF0B6070471FB507F0DA
:1002000008F81FBD10B510BD00F074F91146FFF7D6
:10021000F5FF05F07FFB00F092F903B4FFF7F2FF62
:1002200003BC00F095F900002C4B19680868B0E891
:10023000F04F80F30988BFF36F8F4FF0000080F319
:10024000118870470000000008480068006880F3CB
:1002500008884FF0000080F3148862B661B6BFF3DF
:100260004F8FBFF36F8F00DF00BF00BF08ED00E0CE
:10027000DFF80C00016841F470010160704700BFB5
:1002800088ED00E0EFF30980BFF36F8F134B1A681E
:100290001EF0100F08BF20ED108A20E9F04F10600B
:1002A00009B44FF0500080F31188BFF34F8FBFF3B4
:1002B0006F8F05F035FF4FF0000080F3118809BC07
:1002C00019680868B0E8F04F1EF0100F08BFB0ECD6
:1002D000108A80F30988BFF36F8F70476C0000208D
:1002E000EFF3058070470000094880470948004740
:1002F000FEE7FEE7FEE7FEE7FEE7FEE7FEE7FEE7D6
:10030000FEE7FEE704480549054A064B7047000032
:100310001D3B000889010008384A002038500020A1
:10032000384C0020384C002053EA020C00F0698061
:100330002DE9F04B4FF00006002B1FBFB3FA83F5F9
:1003400003FA05F424FA05F65E4012BF1643B2FA2A
:1003500082F502FA05F4C5F120051EBF22FA05FC5C
:1003600044EA0C04203556EA044C4FEA144418BF02
:10037000641C4FF000084FF00009904271EB030C31
:1003800039D3002919BFB1FA81F701FA07F6B0FA9B
:1003900080F700FA07F6C7F120071EBF20FA07FC16
:1003A00046EA0C062037B6FBF4FCA7EB0507103F26
:1003B00007F01F0BCBF120060CFA0BFB2CFA06F60C
:1003C00044BFB3460026202FA4BF5E464FF0000B6B
:1003D0005BEA060C08BF4FF0010B19EB0B09ABFBF6
:1003E000027C48EB0608C01B06FB02CC0BFB03CCCF
:1003F00071EB0C01C1E70B46024641464846BDE899
:10040000F08B13B54FF000004FF00001AFF3008008
:10041000BDE81C40704710B5203AC0F00B80B1E831
:100420001850203AA0E81850B1E81850A0E8185029
:10043000BFF4F5AF5FEA027C24BFB1E81850A0E832
:10044000185044BF18C918C0BDE810405FEA827C4C
:1004500024BF51F8043B40F8043B08BF7047D20763
:1004600028BF31F8023B48BF11F8012B28BF20F804
:10047000023B48BF00F8012B70474FF0000200B567
:10048000134694469646203922BFA0E80C50A0E8B7
:100490000C50B1F12001BFF4F7AF090728BFA0E865
:1004A0000C5048BF0CC05DF804EB890028BF40F831
:1004B000042B08BF704748BF20F8022B11F0804F73
:1004C00018BF00F8012B704770477047704710B590
:1004D00000F008F8006810BD10B5044600F002F8FE
:1004E000046010BD00487047D449002000487047A0
:1004F000D44900207546FFF7F9FFAE46050069466E
:10050000534620F00700854618B020B5FFF7FAFEE5
:10051000BDE820404FF000064FF000074FF0000804
:100520004FF0000B21F00701AC46ACE8C009ACE885
:10053000C009ACE8C009ACE8C0098D46704710B5E9
:100540000446AFF300802046BDE81040FFF765BECB
:1005500001491820ABBEFEE72600020070470000EC
:1005600070B50D462DED0C8B04469FED618B9FED14
:1005700062CB91ED060B9FED621B51EC100B53EC1F
:10058000112B06F0A3FA7DD295ED060B9FED5E1BB5
:1005900051EC100B53EC112B06F0D2FB72D295EDFF
:1005A0000A0B9FED5B9B51EC100B53EC192B06F0E3
:1005B000C9FA9FED59AB53EC1A2B06F06BF8C4E95E
:1005C000040195ED080B9FED561B51EC100B53ECFD
:1005D000112B06F0B7FA41EC1B0B95ED060B9FEDC6
:1005E000521B51EC100B53EC112B05F09FFF9FEDAC
:1005F000501B53EC112B06F0B1FC53EC1B2B06F0F7
:1006000049F805F061FF06F093FD41EC100B03F093
:10061000E7FD95ED0C1B51EC100B53EC112B05F085
:1006200085FF41EC100B84ED020B04F0A1FB9FED64
:10063000421B51EC100B53EC112B06F083FA95ED95
:10064000040B41EC1B0B51EC100B05F03DFF06F0C9
:100650006FFD53EC1B2B06F081FC9FED391B53EC17
:10066000112B06F017F805F02FFF06F061FD41ECA5
:10067000100B03F061FFB0EE40DAF0EE60DA94EDBB
:10068000020B00E031E053EC192B51EC100B06F09B
:1006900059FA53EC1A2B05F0FDFF41EC1B0B53EC00
:1006A000192B84ED02BB51EC1D0B06F04BFA53ECF9
:1006B0001A2B05F0EFFFC4E9000153EC182B51ECA5
:1006C0001B0B06F003FA0ED994ED020BB0EE4C8A28
:1006D000F0EE6C8A53EC182B51EC100B06F030FB4B
:1006E00001D994ED028B84ED028BBDEC0C8B70BDB7
:1006F00000000000000000000000000000805640E4
:100700000000000040E8FD40000000000088A34019
:1007100000000000008066404AD8124DFB210940CD
:100720000000000000C072400000000000F9D54049
:10073000000000000088E3400000000000C06240AC
:100740000000000000006940012005F027F9FBE7E8
:10075000FEE700000227154E154C00253078412891
:1007600012D061281DD0422819D043280ED0442829
:100770000ED045280ED046280ED0672811D04B2821
:100780000DD06B280DD00DE0012006E0032004E021
:10079000042002E0052000E00620206002E027603F
:1007A00000E02560642005F0F9F8D7E72600002076
:1007B000080000202DED028B02F0FEFE00F074F820
:1007C000344C354DB3EE0E8AFBEE0E8A04F1500622
:1007D000286801280DD002280ED003280FD0042845
:1007E00010D0052811D0062812D0B0B10A281FD089
:1007F00038E084ED018A35E0C4ED018A32E084ED11
:10080000008A2FE0C4ED008A2CE09FED240A01E06D
:100810009FED230A84ED020A24E09FED220A84ED75
:10082000000A84ED010A84ED020A02F09FFE15E041
:1008300096ED010A174896ED031AF8EEC00A96EDF8
:10084000060A9430B8EEC00A02F0A0FF96ED250A21
:10085000BDEEC00A10EE100A02F008FF2868A0B131
:100860000A2812D000F0E6F800F0A6F8706902F04D
:10087000FDFED6F8AC0002F01DFFD6F8440102F0F0
:100880003DFFD6F8DC0102F05DFF052005F086F89B
:100890009EE700005401002008000020CDCC4CBD94
:1008A000CDCC4C3D0000000010B53D482DED048B33
:1008B0009FED398ADFED368A9FED369ADFED379A64
:1008C000B0EE682AF0EE491AB0EE481AF0EE480A87
:1008D000B0EE690A02F06EFF3148B0EE682AF0EE21
:1008E000491AB0EE481AF0EE480AB0EE690A98309C
:1008F00002F060FFB0EE682AF0EE491AB0EE481A36
:10090000F0EE480AB0EE690A264802F053FF254887
:10091000B0EE682AF0EE491AB0EE481AF0EE480A36
:10092000B0EE690A983002F045FF1D48B7EE082A7C
:10093000F0EE481AB0EE481AF0EE480A9FED1A0A97
:10094000443802F037FF1648B0EE682ADFED171A78
:10095000B0EE481ADFED160AB2EE040A283002F0B3
:1009600029FF0F489FED132AF0EE481AB0EE481AFF
:10097000F0EE480AB0EE000A503002F01BFF0849C2
:1009800040F2E3301C398861BDEC048B10BD0000DF
:1009900000401C4600002F440000000000004842B8
:1009A000C0010020F0020020CDCC4C3D0000FA43F5
:1009B0006F12833A00007A4410B51D4C04F11C00FC
:1009C000D4ED030A94ED040A02F002FF94ED0E0A3E
:1009D00004F1B400BDEEC00A84ED050AD4ED290A85
:1009E00094ED2A0A02F0F4FE94ED340A04F5A670A0
:1009F000BDEEC00A84ED2B0AD4ED4F0A94ED500AE7
:100A000002F0E6FE94ED5A0A04F5F270BDEEC00A5B
:100A100084ED510AD4ED750A94ED760A02F0D8FE01
:100A200094ED800ABDEEC00A84ED770A10BD000087
:100A3000A401002022489FED210A9FED222A90ED7B
:100A4000001AD0ED013AD0ED020A9FED1F3A71EE87
:100A5000231A33EEC11A5030F0EE612AF0EE413A1B
:100A600040EEC02A40EE803A00EEC01A40EE801AF6
:100A700062EE822A63EE824ADFED143A21EE021A18
:100A800082EE834AF3EE0E2A21EE820AC0EE230A9A
:100A900024EE224A80ED044A84EEA34A20EEA20A04
:100AA00024EE224A80ED764A81EE034A24EE221A91
:100AB00080ED2A1A80ED500A70470000008036430E
:100AC0005401002000007042D2537B43D2537BC3B9
:100AD00010B504462DED0A8BB0EE428AF0EE628A24
:100AE000B0EE41AAF0EE61AAB0EE409A80ED048B20
:100AF000F0EE609A53EC182B51EC180B84EC049B2D
:100B000006F020F841EC1B0B53EC1A2B51EC1A0B9E
:100B100006F018F841EC1C0B53EC192B51EC190B97
:100B200006F010F853EC1C2B05F000FD53EC1B2BCA
:100B300005F0FCFC41EC100B84ED060B05F0C4FC49
:100B400006F0F6FA41EC100B04F076F984ED080B90
:100B5000B0EE491AF0EE691AB0EE4A0AF0EE6A0AEF
:100B600004F006F851EC100B05F0AEFC06F0E0FACC
:100B7000C4E90A0194ED080B51EC180B53EC102B4F
:100B800005F088FD41EC100B03F02AFB9FED061BDE
:100B900051EC100B53EC112B06F008F9C4E90C01D1
:100BA000BDEC0A8B10BD000000000040FB21F93FA6
:100BB000014800F0B7B80000280B00200168182396
:100BC000CAB2103AB2FBF3F2054B6FF30901032AE4
:100BD0009B5CC36500D9091D81650846704700000C
:100BE0007873000810B5014600208B698A6A4FF0BF
:100BF000C07453B1B3F5005F15D072B1012A0CD0A7
:100C0000022A0AD0032A09D104E01AB1012A06D027
:100C1000022A03D1C96AC90100D5012010BDC96AE1
:100C2000A142FAD010BD002AF7D0012AF2D0022A40
:100C3000F3D0032AF3D010BD7047000007480168C5
:100C4000CA6842F02002CA600068C16841F0100121
:100C5000C160642004F0A2FEFBE70000E40A00206B
:100C600072B6FEE710B5012004F098FEFBE72DE90F
:100C7000F0410446876D00F091FA064694F835007D
:100C80000025022806D08020606584F834500120B9
:100C9000BDE8F0812068016821F01601016020683C
:100CA000416921F080014161206C08B9A06C20B13C
:100CB0002068016821F0080101602068016821F0C6
:100CC000010101600CE000F069FA801B052807D9DA
:100CD00020206065032084F8350084F83450D7E77D
:100CE00020680068C007EED194F85C103F2088406F
:100CF000B860012084F8350084F834500020C7E73C
:100D000090F83510022903D08021416501207047F9
:100D1000052180F835100068016821F001010160AB
:100D2000002070472DE9F84304464FF00009CDF844
:100D3000009063484FF41651A56D0068B0FBF1F7C1
:100D40002E6894F85C10082000FA01F131420FD0AF
:100D500021680A6852070BD50A6822F004020A606B
:100D600094F85C108840A860606D40F001006065F8
:100D700094F85C104FF0010808FA01F0304208D0F6
:100D800021684969090604D5A860606D40F0020039
:100D9000606594F85C1004208840304208D02168D7
:100DA0000968890704D5A860606D40F0040060659B
:100DB00094F85C1010208840304218D021680968EF
:100DC000090714D5A86020680168490304D50068A4
:100DD000000308D5A16C07E00168C90503D40168C8
:100DE00021F008010160216C09B12046884794F880
:100DF0005C1020208840304231D021680968C90643
:100E00002DD5A86094F8350005282068016806D023
:100E1000490347D5006800031DD4616C1CE021F034
:100E2000160101602068416921F080014161206C58
:100E300008B9A06C20B12068016821F008010160A8
:100E400094F85C103F208840A86084F8358084F8CE
:100E50003490216D1FE0E16B09B120468847606D39
:100E600000282BD0606DC00714D0052084F8350011
:100E70002068016821F0010101600098401C009089
:100E8000B84203D820680068C007F6D184F83580DE
:100E900084F83490E16C002910D001B02046BDE800
:100EA000F04308470168C905D5D4016821F0100155
:100EB000016084F8358084F83490CCE7BDE8F8838D
:100EC000680000202DE9F041044600F067F906466D
:100ED0005CB1022084F83500002584F83450206885
:100EE000016821F0010101600DE00120BDE8F08101
:100EF00000F054F9801B052805D9202060650320E7
:100F000084F83500F2E720680068C007F0D1226855
:100F1000116820480140D4E901031843D4E903369D
:100F20003343184363691843A3691843E3691843BB
:100F3000236A18430843616A042903D1D4E90B13D7
:100F400019430843106020684069666A20F0070171
:100F500030460E43012704280CD1A06A0643E06AFC
:100F600040B12046FFF73EFE20B14020606584F886
:100F70003570BAE7206846612046FFF71FFE94F8F7
:100F80005C203F2191408160656584F835700020C8
:100F9000ACE700003F8010F02DE9F84FDFF8BCA16E
:100FA0000022012503264FF00F090AF1040BAAF1D4
:100FB000040E00BF0B6805FA02F42340A34270D16F
:100FC0000F7907F00307012F01D0022F16D1876890
:100FD0004FEA420806FA08FC27EA0C07D1F80CC0D1
:100FE0000CFA08FC4CEA070CC0F808C04768A74395
:100FF0000C79C4F3001494403C4344600C79E443FE
:10100000A4070AD0C4684FEA420C06FA0CF7BC43A6
:101010008F6807FA0CF72743C7600C7904F00304C4
:10102000022C12D1D40800EB840CDCF820405707C6
:10103000FF0E09FA07F824EA0804D1F8108008FA2C
:1010400007F848EA0408CCF8208004684FEA420C0C
:1010500006FA0CF7BC430F7907F0030707FA0CF701
:10106000274307604C6814F4403F70D03C4C27681D
:1010700047F480472760246822F0030704F4804483
:101080000094384C07EB040CDCF8084897074FEA4B
:10109000177809FA08F7BC43334FB84202D100274A
:1010A00024E054E0314FB84201D101271EE0304F17
:1010B000B84201D1022719E02E4FB84201D10327CF
:1010C00014E02D4FB84201D104270FE02B4FB84256
:1010D00001D105270AE02A4FB84201D1062705E0D1
:1010E000284FB84201D1072700E0082707FA08F780
:1010F0002743CCF80878DAF800405746D1F804C006
:101100009C435FEACC2C00D51C433C60DBF80040DC
:101110005F46D1F804C09C435FEA8C2C00D51C4389
:101120003C60DEF800407746D1F804C09C435FEA9B
:101130008C3C00D51C433C60084F083F3C68D1F80C
:1011400004C09C435FEACC3C00D51C433C60521C6D
:10115000102AFFF42FAFBDE8F88F0000083C0140D3
:1011600044380240003001400000024000040240C8
:1011700000080240000C024000100240001402402F
:1011800000180240001C02400069084000D0012005
:1011900070470AB1816170470904FBE70148806824
:1011A000704700005C00002002488168027811440A
:1011B000816070475C0000200B4810B5016841F465
:1011C00000710160016841F480610160016841F4CF
:1011D00080710160032000F09FF80F2000F006F8F6
:1011E00000F050F8002010BD003C024030B505462C
:1011F0001F4887B00024016841F0200101600068A9
:1012000006A900F02000009001A800F031F9049830
:10121000A8B100F04DF940001649174AB0FBF1F1B2
:101220001648491E026040F2E732C0E90324C0E9D3
:101230000114846100F0B6FB040003D015E000F057
:1012400037F9E9E70D4800F05BFC04000DD13720C9
:1012500000F034F8102D07D200222946372000F084
:101260003BF80748056000E0012407B0204630BD88
:101270004038024040420F0000140040880B00201C
:10128000600000200C4882B0016841F48041016098
:10129000006800F4804000900748001F016841F09A
:1012A000805101600068002200F0805000900F2102
:1012B000901E02B000F010B844380240002809DB4C
:1012C00000F01F02012191404009800000F1E02060
:1012D000C0F8001170470000F0B40E4B1B680C46BC
:1012E000C3F30223C3F10705042D00D90425191DFA
:1012F000072901D2002300E0DB1E012606FA05F1D2
:10130000491E214099409E40761E16403143F0BC54
:1013100002F053BF0CED00E0064900F00702086838
:101320004FF6FF03184040EA0220034A10430860CA
:10133000704700000CED00E00000FA052DE9F047D1
:101340000E46050065D0DFF81481D8F80000F7B22A
:1013500000F00700B04207D288F80070D8F800000B
:1013600000F00700B04254D128683D4C810712D5E7
:10137000400703D5206840F4E0502060287800073B
:1013800003D5206840F4604020602068A96820F000
:10139000F000084320602878C0072DD030496868E5
:1013A0000839012812D0022813D0032811D0096867
:1013B000890700292DDA216821F00301014321600A
:1013C000FFF7ECFE814641F2883A0EE00968890396
:1013D000EFE709688901ECE7FFF7E0FEA0EB090100
:1013E000514502D90320BDE8F0872068696800F004
:1013F0000C00B0EB810FEFD1D8F80010404601F09F
:101400000701B14207D90770006800F00700B04239
:1014100001D00120E7E72878400705D52068E96872
:1014200020F4E050084320602878000706D52068A3
:10143000296920F4604040EAC100206000F058F8BB
:101440002168084AC1F30311515CC840064908608D
:1014500006480068FFF7CAFE0020C4E7003C0240CF
:1014600008380240807300086800002060000020F7
:101470000F2202600C4A136803F0030343601368F1
:1014800003F0F0038360136803F4E053C360126851
:101490004FF4E05303EAD20202610448006800F00E
:1014A000070008607047000008380240003C024016
:1014B0000448054900680968044AC1F38221515C67
:1014C000C840704768000020083802409073000848
:1014D0000448054900680968044AC1F34231515C77
:1014E000C840704768000020083802409073000828
:1014F000154810B5006810F00C02144813D04110C4
:10150000042A0FD0082A0ED10F4C241F226823680A
:1015100002F03F025B0207D52068C0F38810A0FBF1
:10152000010106E0084610BD2168C1F38811A1FB46
:1015300000010023FEF7F8FE2168C1F30141491CB8
:101540004900B0FBF1F010BD083802400024F4005F
:101550002DE9F84F04006ED02078DFF84C93C007D7
:10156000A9F104054AD009F104000168C1F3810121
:10157000012908D00068C0F3810002280AD1D9F8F7
:101580000000400206D52868800337D5606800282F
:10159000E1D033E06068B0F5803F10D0B0F5A02F07
:1015A000286810D020F480302860286820F480203B
:1015B00028606068A8B1FFF7F1FD06460DE02868D5
:1015C00040F48030F4E740F480202860F7E700BF63
:1015D000FFF7E4FD801B642873D828688003F7D5E3
:1015E0000CE0FFF7DBFD064605E000BFFFF7D6FD88
:1015F000801B6428F0D828688003F7D42078DFF8AF
:10160000AC8280074FF0000A3ED5A748001D016854
:1016100011F00C0F08D00068C0F3810002280BD134
:10162000D9F80000400207D42868800716D5E06882
:10163000012800D112E033E1E068B8B10120C8F818
:101640000000FFF7ABFD064605E000BFFFF7A6FD73
:10165000801B0228C0D828688007F7D52868216930
:1016600020F0F80040EAC10028600DE0C8F800A0B2
:10167000FFF794FD064604E0FFF790FD801B02286B
:101680001FD828688007F7D42078000722D5864F16
:1016900087486169703771B101210160FFF77EFDF4
:1016A000064604E0FFF77AFD801B022809D8386857
:1016B0008007F7D50EE0C0F800A0FFF76FFD0646E3
:1016C00005E082E0FFF76AFD801B02287DD83868BC
:1016D0008007F7D42078400768D5DFF8CCB1002721
:1016E0000BF13C0BDBF80000C0000BD4DBF8001062
:1016F00041F08051CBF80010DBF80000012700F02A
:10170000805000906B4E3068C00510D4306840F4B3
:1017100080703060FFF742FD009005E0FFF73EFD6E
:101720000099401A022850D83068C005F6D55E4EA0
:10173000A0686C3601280FD00528306810D020F042
:1017400001003060306820F004003060A068B8B15B
:10175000FFF724FD00900FE0306840F00100F4E74F
:1017600040F004003060F7E7FFF718FD0099411AD8
:1017700041F28830814266D830688007F4D50EE0A7
:10178000FFF70CFD009007E0FFF708FD0099411AF4
:1017900041F28830814256D830688007F4D42FB1A6
:1017A000DBF8001021F08051CBF80010A069C8B31D
:1017B0003D49091D0968C1F3810102294AD0022867
:1017C000504607D0C8F8600000E03CE0FFF7E6FCB8
:1017D00004463BE04746C8F86000FFF7DFFC0646DA
:1017E00005E000BFFFF7DAFC801B02282BD8286831
:1017F0008001F7D4D4E907010843A16A2E4A4908B9
:1018000002EB0141626A41EA8211084394F82C100C
:1018100040EA0161C9F8001001203866FFF7BEFCFC
:10182000044606E03EE000BFFFF7B8FC001B0228BC
:1018300009D828688001F7D534E000BFFFF7AEFC77
:10184000001B022802D90320BDE8F88F2868800118
:10185000F4D427E00128F7D0D9F80000E26900F4B9
:10186000800191421CD1226A00F03F01914217D1C0
:1018700047F6C071626A0140B1EB821F10D1A26AC3
:101880004FF0FF3300F4403103EB5202B1EB024F53
:1018900006D194F82C1000F07060B0EB016F01D00D
:1018A0000120D1E70020CFE7043802400000474282
:1018B000800E4742007000400000FFFF70477047F5
:1018C00010B590F83C20012A22D0012280F83C205B
:1018D000CA688C6822F4407222434C6822F4806209
:1018E00022430C6822F4006222430C6922F48052E5
:1018F00022434C6922F400522243C969002322F496
:1019000080420A4301684A6480F83C30002010BDE0
:10191000022010BD70B590F83C20012A32D001247D
:1019200080F83C40022280F83D2003685A689D6898
:1019300022F070060A6832435A60134B02689A42DA
:1019400014D0B2F1804F11D0104B9A420ED0104BF0
:101950009A420BD00F4B9A4208D00F4B9A4205D0B7
:101960000E4B9A4202D00E4B9A4204D1496825F0A0
:1019700080031943916080F83D40002180F83C10BD
:10198000084670BD022070BD000001400004004008
:1019900000080040000C00400004014000400140ED
:1019A0000018004010B5040003D094F83D0010B1B9
:1019B00007E0012010BD002084F83C00204600F024
:1019C0001FF8022084F83D00211D206802F0E4F891
:1019D000012084F8460084F83E0084F83F0084F833
:1019E000400084F8410084F8420084F8430084F801
:1019F000440084F8450084F83D00002010BD00003C
:101A000008B53749026837488A4207D1016841F072
:101A100001010160006800F001002DE03149091F5B
:101A2000B2F1804F0BD0304B9A4210D1016841F493
:101A300080310160006800F48030009008BD0868C3
:101A400040F001000860086800F00100F5E7274B4E
:101A50009A4207D1016841F400310160006800F446
:101A60000030EAE7224B9A420ED1016841F480210E
:101A70000160006800F480200090002205211A20F7
:101A8000FFF72AFC1A2010E01A48824211D1086898
:101A900040F0400008600868002200F0400000901C
:101AA00005212B20FFF718FC2B20BDE80840FFF78D
:101AB00005BC1148824207D1086840F080000860E8
:101AC000086800F08000B8E70C488242B6D1086888
:101AD00040F480700860086800F48070ADE7000092
:101AE00000000140443802400040014000440140F1
:101AF0000048014000180040001C00400020004049
:101B000090F83D10012901D001207047022180F892
:101B10003D100168CA6842F00102CA6000681149BC
:101B2000884214D0B0F1804F11D00F4988420ED0B6
:101B30000E4988420BD00E49884208D00D49884290
:101B400005D00D49884202D00C49884204D18168F1
:101B500001F00701062903D0016841F0010101608D
:101B600000207047000001400004004000080040D1
:101B7000000C0040000401400040014000180040FB
:101B800070B5044690F83C000025012817D00126C6
:101B900084F83C60022084F83D002068826822F0CE
:101BA000770222F47F4282600868502838D00DDC2A
:101BB00020284FD005DC90B3102811D14AE0022034
:101BC00070BD302846D040280AD13BE060282FD095
:101BD00070280DD0B0F5805F03D0B0F5005F12D053
:101BE000012584F83D60002084F83C00284670BD43
:101BF000CB68D1E90121206802F03FF820688168B4
:101C000041F0770109E0CB68D1E90121206802F0B9
:101C100034F82068816841F480418160E1E719E08F
:101C2000CA684968206802F0FDF85021206806E083
:101C3000CA684968206802F006F96021206802F04D
:101C400026F8CEE7CA684968206802F0EBF8402120
:101C50002068F4E7226801461046F0E72DE9F041DC
:101C60000D46040003D094F83D0018B108E00120AF
:101C7000BDE8F081002084F83C00204600F040F8E8
:101C8000022084F83D002068816844F207029143F5
:101C90008160211D206801F07FFF226890689169B2
:101CA000166A2B68AF69034340F20330814341EA6F
:101CB0000721A868EF6908434FF6FC418843E968AB
:101CC00040EA0720014328692F6A000140EA0730F3
:101CD000084369686D6926F0AA0646EA0515294396
:101CE00093602268906154F8460B0162012004F869
:101CF0001F09E0752076E0762077A0750020B7E711
:101D000070B586B0044614216846FEF7B6FB4F480E
:101D100024684D4D00214D4A10380223AC4220D199
:101D2000146844F002041460126802F00202059282
:101D3000026842F002020260006800F002000590B2
:101D400030200090CDE90131CDE9031369464048C8
:101D5000FFF722F9002205211D20FFF7BDFA1D2003
:101D600023E03C4DAC4224D1146844F004041460D8
:101D7000126802F004020592026842F00802026052
:101D8000006800F0080005904FF440500090CDE945
:101D90000131CDE9031369462F48FFF7FDF8002212
:101DA00005211E20FFF798FA1E20FFF787FA06B0DC
:101DB00070BD2A4E0325B4421FD1146844F00804B4
:101DC0001460126802F008020592026842F00102F3
:101DD00002600068009500F001000590CDE9013136
:101DE000CDE9031369461E48FFF7D6F80022052106
:101DF0003220FFF771FA3220D7E71A4A9442D6D13F
:101E0000124A121D146844F002041460126802F0B1
:101E100002020592026842F004020260006800F0CB
:101E200004000590C0200090CDE90131CDE90315F3
:101E300069460D48FFF7B0F8002205212B20FFF777
:101E40004BFA2B20B1E7000000040040403802406C
:101E50000004024000080040000C0240000C00405A
:101E600000000240000401400008024070B590F8F4
:101E70003E60044690F83F5090F8423090F843207E
:101E8000022021B104290ED0012E1BD114E0012E15
:101E900018D1012B16D184F83E0084F842000122AB
:101EA0000021206820E0012D0CD1012A0AD184F8FC
:101EB0003F0084F8430014E0012D03D1012B01D130
:101EC000012A01D0012070BD84F83E0084F83F0053
:101ED00084F8420084F8430001220021206801F0C8
:101EE000BFFE01220421206801F0BAFE20680168CB
:101EF00041F001010160002070BD704770B50446DB
:101F0000006801694FF00005C943890715D4C1680D
:101F1000C943890711D4E91E016101202077206897
:101F200080698007204602D0FFF7E7FF04E000F059
:101F300029F9204600F0BBF9257720680169C943DB
:101F4000490717D4C168C943490713D46FF0040186
:101F50000161022020772068806910F4407F2046CC
:101F600002D0FFF7CAFF04E000F00CF9204600F0B1
:101F70009EF9257720680169C943090716D4C1680D
:101F8000C943090712D46FF00801016104202077CA
:101F90002068C0698007204602D0FFF7AEFF04E04A
:101FA00000F0F0F8204600F082F9257720680169FA
:101FB000C943C90617D4C168C943C90613D46FF011
:101FC00010010161082020772068C06910F4407F6B
:101FD000204602D0FFF791FF04E000F0D3F820463E
:101FE00000F065F9257720680169C943C90708D160
:101FF000C168C943C90704D1891E0161204600F0A8
:10200000BBF920680169C943090609D4C168C943FD
:10201000090605D46FF0800101612046FFF74EFCF0
:1020200020680169C943490609D4C168C943490602
:1020300005D46FF040010161204600F089FA206864
:102040000169C94389060BD4C168C943890607D40D
:102050006FF0200101612046BDE87040FFF72FBC02
:1020600070BD000070B586B0044614216846FEF7C6
:1020700004FA2468394E00223949022301253948DF
:10208000B4420AD10C6844F010040C60096801F0F5
:10209000100105914FF4D4415BE0B4F1804F0DD0B5
:1020A000314E0325B4421FD10C6844F010040C607B
:1020B000096801F01001059120214AE0086840F00C
:1020C000020008600868694600F0020005904FF4BD
:1020D00081600090CDE90132244800BFCDE903259D
:1020E000FEF75AFF06B070BD214E2248B44209D116
:1020F0000C6844F020040C60096801F0200105918F
:10210000402126E01C4EB44209D10C6844F0200462
:102110000C60096801F020010591802119E0174E3B
:102120000925B44209D10C6844F020040C60096808
:1021300001F020010591B1150BE0114EB442D1D14F
:102140000C6844F020040C60096801F0200105913E
:1021500071150091CDE901326946BFE700000140E9
:1021600030380240001002400040014000040240AC
:10217000004401400014024000480140001C00409F
:1021800000200040704770B5044690F83C000026DF
:102190000D4601280FD0012084F83C006AB1042AC2
:1021A0001DD0082A2FD00C2A3FD00126002084F809
:1021B0003C00304670BD022070BD206801F070FD0B
:1021C0002068816941F0080181612068816921F0FE
:1021D00004018161206881692A69114311E0206846
:1021E00001F08EFD2068816941F400618161206801
:1021F000816921F480618161206881692A6941EAED
:1022000002218161D2E7206801F0B0FD2068C16938
:1022100041F00801C1612068C16921F00401C16178
:102220002068C1692A69114311E0206801F0D2FDDC
:102230002068C16941F40061C1612068C16921F46D
:102240008061C1612068C1692A6941EA0221C161D6
:10225000ACE710B5040003D094F83D0010B107E0DE
:10226000012010BD002084F83C00204600F01EF83C
:10227000022084F83D00211D206801F08DFC012022
:1022800084F8460084F83E0084F83F0084F840005B
:1022900084F8410084F8420084F8430084F8440044
:1022A00084F8450084F83D00002010BD7047704759
:1022B00010B50446022249B104290ED0082913D0D2
:1022C00094F84100012816D0012010BD94F83E007A
:1022D0000128F9D184F83E200FE094F83F0001284E
:1022E000F2D184F83F2008E094F840000128EBD1B7
:1022F00084F8402001E084F841200122206801F0A8
:10230000AFFC16492068164A884201D0904203D19A
:10231000436C43F4004343642068884213D0B0F117
:10232000804F10D00F4988420DD00F4988420AD003
:102330000E49884207D0904205D00D49884202D00C
:102340000C49884204D1816801F00701062903D0B5
:10235000016841F001010160002010BD0000014052
:10236000000401400004004000080040000C004050
:1023700000400140001800402DE9F00307686B4859
:10238000874203D1BDE8F003FEF70EBF684842F272
:10239000107806686748B742B0F908C011D1716A71
:1023A000414502D20CF1010C04E0716A414503D9A8
:1023B000ACF1010CA0F808C0C6F82480BDE8F00319
:1023C00070475D490D685B49AF42B1F9A0900FD1EC
:1023D000696A414502D209F1010104E0696A414597
:1023E00003D9A9F10101A0F8A010C5F82480E5E700
:1023F00052490B684F499F42B1F938210DD1596AB2
:10240000414501D2521C03E0596A414502D9521E8E
:10241000A0F83821C3F82480D0E749490C68454921
:10242000A742B1F9D0110DD1626A424501D2491CCF
:1024300003E0626A424502D9491EA0F8D011C4F8EF
:102440002480BBE7DFF8FC80D8F800804745B5D191
:10245000776AD6F82C80F66AA7EB58073FB20CFBD8
:1024600006FC07EB5C0646600768F71B00EE107A77
:10247000F8EEC00A9FED340A80EE801ADFED330AD1
:1024800021EE201A80ED031A06606E6AEF6AED6A8B
:10249000A6EB570637B209FB05F607EB5605C0F861
:1024A0009C50D0F89860AE1B01EE106AF8EEC11A8D
:1024B00081EE801A21EE201A80ED291AC0F898507A
:1024C0005D6ADE6ADB6AA5EB56052DB25A4305EB61
:1024D0005202C0F83421D0F83031D31A01EE103A4C
:1024E000F8EEC11A81EE801A21EE201A80ED4F1A03
:1024F000C0F83021626AE36AA2EB5302E36A12B2C7
:10250000594302EB5101C0F8CC11D0F8C8218A1A06
:1025100001EE102AB8EEC11AC1EE001A21EEA00A8F
:1025200080ED750AC0F8C81148E7000000140040AB
:1025300048070020A401002090070020D8070020B1
:1025400020080020400900200000A5440080BB4571
:102550007047704770470000F8B501680446086886
:10256000CA684B6910F00F0F4FF0000559D003F007
:10257000010602F49077374365D0C10705D0D10535
:1025800003D5216C41F001012164410705D5D9072C
:1025900003D0216C41F002012164810705D5D907E0
:1025A00003D0216C41F004012164010707D502F03A
:1025B0002001314303D0216C41F008012164216CDA
:1025C00000293AD0800604D5900602D5204601F0B5
:1025D000AAFC20684069216CC0F38010090700D470
:1025E00060B3204601F078FC20684069400621D5A0
:1025F0002068143050E8001F21F0400140E800122C
:10260000002AF5D1A06BA8B16C490165A06BFEF75B
:1026100077FB002811D0A06B016D01B0BDE8F04040
:10262000084783060FD593060DD52046BDE8F84030
:1026300001F079BC2046FFF78DFFF8BD2046FFF77B
:1026400089FF2564F8BD266B2023012E79D1C606AB
:1026500077D5D60675D50868486800904869400661
:1026600040D5A16B086840680004000CEAD0A28D38
:102670008242E7D9E085C869B0F5807F2DD0206817
:102680000C3050E8001F21F4807140E80012002A4D
:10269000F5D12068143050E8001F21F0010140E816
:1026A0000012002AF5D12068143050E8001F21F0F4
:1026B000400140E80012002AF5D184F83E3025633D
:1026C00020680C3050E8001F21F0100140E8001293
:1026D000002AF5D1A06BFEF7CAFAA08DE18D401A51
:1026E00081B229E0A08DE18D401A81B2E08D0028F1
:1026F000A8D00029A6D020680C3050E8002F22F482
:10270000907240E80026002EF5D12068143050E881
:10271000002F22F0010240E80026002EF5D184F8B7
:102720003E30256320680C3050E8002F22F0100264
:1027300040E80023002BF5D12046FFF70AFFF8BD43
:10274000FFE705062BD5150629D594F83D0021286D
:10275000F5D1A068B0F5805F01D12069B0B1206AE1
:10276000411C2162216800784860E08C401E000412
:10277000000CE084E3D12068C16821F08001C160D1
:102780002068C16841F04001C160D8E7206A008834
:10279000C0F308004860206A801C2062E5E740061C
:1027A000CDD55006CBD5CA68204622F04002CA607B
:1027B00084F83D3000F0C6F9C1E70000C93E0008CA
:1027C00070B5040004D094F83D00002510B106E077
:1027D000012070BD84F83C50204600F023F82420EE
:1027E00084F83D002068C16821F40051C160204692
:1027F00001F0FAFB2068016921F490410161206831
:10280000416921F02A0141612068C16841F4005109
:10281000C1602564202084F83D0084F83E0000203B
:1028200070BD0000F0B587B0064614216846FDF77C
:1028300024FE57495548D6F800C00024544A1039A0
:102840000223032584451FD1106840F40020106046
:10285000106800F400200590086840F0040008604B
:102860000868694600F004000590A8028DE8390068
:10287000082004904748FEF78FFB002205213420F2
:10288000FEF72AFD34203BE04348072784453BD12F
:102890003F48001D026842F010020260006800F02C
:1028A00010000590086840F001000860086869465B
:1028B00000F0010005904FF4C0608DE8B900374882
:1028C000FEF76AFB374D364828604FF000606860BD
:1028D0004020C5E902040001C5E90404AC61EC61D3
:1028E0002C6228466C62FEF7EDFA08B1FEF7B8F9E3
:1028F0007563002205212520AE63FEF7EDFC25203F
:10290000FEF7DCFC07B0F0BD274E2848B4451CD1CB
:10291000166846F400361660126802F4003205921A
:102920000A6842F008020A60096801F0080105918E
:1029300060218DE8BA006946FEF72EFB00220521D2
:102940002620FEF7C9FC2620DAE7194EB445D9D176
:10295000166846F480261660126802F480220592FA
:102960000A6842F008020A60096801F0080105914E
:102970004FF440718DE8BA006946FEF70DFB002266
:1029800005212720FEF7A8FC2720B9E7004C0040CE
:1029900040380240000802400010014000000240A0
:1029A000B8640240280B002000440040000C0240A4
:1029B0000048004090F83E30202B0ED159B152B162
:1029C00090F83C30012B08D0012380F83C300023E4
:1029D000036301F08FBB01207047022070470000A5
:1029E00010B504464848844206D100F0C1F80122DF
:1029F00046494548FFF7DEFF4548844275D14548C2
:102A0000454B464A0078464946280ED0B3EE090A9F
:102A1000472810D04B2815D0B3EE0E0A48281AD0FC
:102A20004A281FD0492826D034E0107810B301205E
:102A3000107018602EE01078E0B1D1ED000A30EE91
:102A4000800A05E01078A8B1D1ED000A30EEC00A86
:102A500081ED000A1EE0107860B1D1ED010A30EE80
:102A6000800A05E0107828B1D1ED010A30EEC00AE5
:102A700081ED010A0EE000201860107091ED030A4C
:102A8000BCEEC00A81ED190A91ED040ABCEEC00A41
:102A900081ED1A0A91ED000A10EE100AB0F1844F90
:102AA00002DC9FED200A06E010EE100A1E4A90425A
:102AB00001DB9FED1E0A1E4A81ED000A91ED010A1D
:102AC00010EE100A904202DC9FED1A0A06E010EEAA
:102AD000100A194A904201DB9FED180A012281ED8C
:102AE000010A0C490A48FFF765FF1548844209D1DD
:102AF00000F084F807490122BDE81040491C104845
:102B0000FFF758BF10BD0000180A0020D5000020B4
:102B10005C0A0020260000200400002000000020A5
:102B2000E8000020000000420000AA420000AA4283
:102B300000004042000040420000D2420000D24269
:102B4000A00A00207047FEE710B5012002F026FF22
:102B5000FBE70000012204490448FFF72BFF022095
:102B600002F01CFFFBE70000D5000020180A00203F
:102B700010B51E481D49491E03781D480A78835424
:102B8000521CD2B20A7004780023552C2BD10B2A88
:102B90002AD34278532A26D1428800EE102A00F127
:102BA000FC02F8EE400A9FED130A20EE801ADFEDDA
:102BB000120A21EE201A82ED001A848801EE104AD2
:102BC000B8EE411A21EE001A21EE201A82ED021A07
:102BD000C08801EE100AB8EE411A21EE000A20EE7C
:102BE000200A82ED010A0B7010BD0000D500002004
:102BF000C048002000003443000000380F4810B5E2
:102C00000378C01E0E4942788B54521CD2B24270D7
:102C10000C780023AA2C0FD1022A0ED34C78AE2CAC
:102C20000AD1082A09D30A4412F8012CBB2A03D17D
:102C30008A780270C9784160437010BD2700002077
:102C400058040020094808B5016841F4800101607A
:102C50000068002200F48000009005214620FEF765
:102C60003BFBBDE808404620FEF728BB3038024059
:102C700010B5D4B01C2242496846FDF7CCFB0021B8
:102C8000684602F097FE3F4C3D491C2220601C31F3
:102C900007A8FDF7C0FB002107A802F08BFE38490A
:102CA00060601C2238310EA8FDF7B5FB00210EA88C
:102CB00002F080FE3249A0601C22543115A8FDF7B5
:102CC000AAFB002115A802F075FE2D49E0601C2228
:102CD00070311CA8FDF79FFB00211CA802F06AFEC2
:102CE000274920611C228C3123A8FDF794FB002189
:102CF00023A802F05FFE224960611C22A8312AA8A5
:102D0000FDF789FB00212AA802F054FE1C49A061AE
:102D10001C22C43131A8FDF77EFB002131A802F04E
:102D200049FE1749E0611C22E03138A8FDF773FB2A
:102D3000002138A802F03EFE114920621C22FC311D
:102D40003FA8FDF768FB00213FA802F033FE606258
:102D50001C220D4946A8FDF75EFB002146A802F0A3
:102D600029FE0949A0621C221C314DA8FDF753FB26
:102D700000214DA802F01EFEE06254B010BD00001C
:102D8000287200082C000020407300082DE9F0474D
:102D900086B014216846FDF770FB434800240168A3
:102DA00041F010010160016801F010010591016816
:102DB00041F020010160016801F0200105910168E6
:102DC00041F080010160016801F080010591016816
:102DD00041F004010160016801F0040105910168FE
:102DE00041F001010160016801F0010105910168F4
:102DF00041F002010160016801F0020105910168E2
:102E000041F008010160016801F0080105910168C5
:102E100041F0400101600068DFF8908000F0400060
:102E2000059000220F214046FEF7B3F9DFF88090AD
:102E30004FF40046002231464846FEF7AAF9DFF873
:102E400074A0B710002239465046FEF7A2F91820A8
:102E500001258DE8310069461748FEF79DF80F20DF
:102E60000090CDE90154694640460394FEF794F87A
:102E70000096CDE90154694648460394FEF78CF864
:102E80000220CDE90250CDE9007569465046FEF7B3
:102E900083F8A8038DE8310069465046FEF77CF8B8
:102EA00006B0BDE8F087000030380240000802405C
:102EB00000000240001802400010024010B588B027
:102EC0001C216846FDF7D9FA154814490024016011
:102ED000A721C0E9011444F61F61C0E9031484610D
:102EE000FEF760FD08B1FDF7BBFE0D48FFF7B1F935
:102EF00008B1FDF7B5FE6020CDE900040294002280
:102F0000694607480494FFF73EF908B1FDF7A8FEAB
:102F10000348FFF7A7F808B010BD000000440140C7
:102F2000B008002010B588B01C216846FDF7A5FA4E
:102F30001548144900240160A721C0E9011444F692
:102F40001F61C0E903148461FEF72CFD08B1FDF791
:102F500087FE0D48FFF77DF908B1FDF781FE60207F
:102F6000CDE9000402940022694607480494FFF763
:102F70000AF908B1FDF774FE0348FFF773F808B0CB
:102F800010BD000000480140F80800201FB50021D6
:102F900010480091019102910D4A03910260A7220D
:102FA000C0E9012142F21072C0E903218161FEF7FC
:102FB000F9FC08B1FDF754FE4FF4805000906946CB
:102FC0000448FEF7DDFD002801D0FDF749FE1FBDD6
:102FD000001800404009002010B588B01C21684648
:102FE000FDF74BFA15481449002401605321C0E94C
:102FF000011444F61F61C0E903148461FEF7D2FC9A
:1030000008B1FDF72DFE0D48FFF723F908B1FDF7D4
:1030100027FE6020CDE9000402940022694607489B
:103020000494FFF7B0F808B1FDF71AFE0348FFF764
:1030300019F808B010BD0000001C004088090020ED
:1030400010B588B01C216846FDF717FA15481449D9
:10305000002401605321C0E9011444F61F61C0E956
:1030600003148461FEF79EFC08B1FDF7F9FD0D48DD
:10307000FFF7EFF808B1FDF7F3FD6020CDE900049C
:1030800002940022694607480494FFF77CF808B1CF
:10309000FDF7E6FD0348FEF7E5FF08B010BD0000B0
:1030A00000200040D009002010B596B000240F94F5
:1030B00010941194129413941C2168461494FDF7F3
:1030C000DCF9202107A8FDF7D8F93548334901601C
:1030D000A721C0E9011442F21071C0E90314802154
:1030E000C0E90541FEF75EFC08B1FDF7B9FD4FF4FC
:1030F00080500F900FA92A48FEF742FD08B1FDF756
:10310000AFFD2748FFF7A5F808B1FDF7A9FD139417
:1031100013A923481494FEF7FDFB08B1FDF7A0FDA9
:103120006020CDE9000402940394049405940022E5
:1031300069461B480694FFF726F808B1FDF790FD95
:10314000042269461648FFF71EF808B1FDF788FD0E
:10315000082269461248FFF716F808B1FDF780FD0E
:103160000C2269460E48FFF70EF808B1FDF778FD0E
:103170000794089409944FF400500A94CDE90B4049
:1031800007A907480E94FEF79BFB08B1FDF768FD01
:103190000348FEF767FF16B010BD000000000140B5
:1031A000B806002010B58EB0002407940894099446
:1031B0000A940B941C2168460C94FDF75EF9224892
:1031C0004FF0804101605321C0E9011444F61F61B2
:1031D000C0E9031480218161FEF7E4FB08B1FDF72B
:1031E0003FFD4FF48050079007A91748FEF7C8FC31
:1031F00008B1FDF735FD1448FFF72BF808B1FDF7CE
:103200002FFD0B940BA910480C94FEF783FB08B11B
:10321000FDF726FD6020CDE90004029404226946F2
:1032200009480494FEF7AFFF08B1FDF719FD082225
:1032300069460548FEF7A7FF08B1FDF711FD0248F2
:10324000FEF710FF0EB010BD0007002010B58CB0C7
:1032500024216846FDF711F9002416480994144901
:103260000A94C0E9001444F62061C0E902418021BB
:10327000046181610120CDE90004CDE902040494D8
:10328000CDE90540079469460A480894FEF7E6FC34
:1032900008B1FDF7E5FC099409A906480A94FEF770
:1032A00039FB002801D0FDF7DBFC0CB010BD00009D
:1032B000000400404807002010B58CB02421684667
:1032C000FDF7DBF800241648099414490A94C0E974
:1032D000001444F62061C0E902418021046181614B
:1032E0000120CDE90004CDE902040494CDE90540B4
:1032F000079469460A480894FEF7B0FC08B1FDF748
:10330000AFFC099409A906480A94FEF703FB0028BC
:1033100001D0FDF7A5FC0CB010BD00000008004076
:103320009007002010B58CB024216846FDF7A5F861
:1033300000241648099414490A94C0E9001444F67C
:103340002061C0E902418021046181610120CDE951
:103350000004CDE902040494CDE9054007946946D0
:103360000A480894FEF77AFC08B1FDF779FC099445
:1033700009A906480A94FEF7CDFA002801D0FDF706
:103380006FFC0CB010BD0000000C0040D8070020FE
:1033900010B58CB024216846FDF76FF8002416485C
:1033A000099414490A94C0E9001444F62061C0E964
:1033B000024180210461C0E905410120CDE90004FA
:1033C000CDE902040494CDE90540079469460A4812
:1033D0000894FEF743FC08B1FDF742FC099409A9E3
:1033E00005480A94FEF796FA002801D0FDF738FC4C
:1033F0000CB010BD000401402008002010B58CB0B6
:1034000000240794089409941C2168460A94FDF747
:1034100034F81A4818490160A721C0E9011444F69C
:103420001F61C0E903148461FEF7BCFA08B1FDF71F
:1034300017FC4FF48050079007A91048FEF7A0FB37
:1034400008B1FDF70DFC0D48FEF703FF08B1FDF7CD
:1034500007FC6020CDE90004029400226946074879
:103460000494FEF790FE08B1FDF7FAFB0348FEF75F
:10347000F9FD0CB010BD00000040014068080020BC
:103480000C4810B50A4901604FF416514160002103
:1034900081600C22C160C0E904128161C161FFF743
:1034A0008FF9002803D0BDE81040FDF7D9BB10BD4F
:1034B000004C0040180A00200C4810B50A49016071
:1034C0004FF4E1314160002181600C22C160C0E90C
:1034D00004128161C161FFF773F9002803D0BDE8D0
:1034E0001040FDF7BDBB10BD001001405C0A00207C
:1034F0000C4810B50A4901604FF4E13141600021E8
:1035000081600C22C160C0E904128161C161FFF7D2
:1035100057F9002803D0BDE81040FDF7A1BB10BD4E
:1035200000440040A00A00200C4810B50A49016080
:103530004FF416514160002181600C22C160C0E946
:1035400004128161C161FFF73BF9002803D0BDE897
:103550001040FDF785BB10BD00480040E40A002084
:10356000FEE7052002F01AFAFBE7000070B5104DE7
:103570000024286844630F4E224601213046FDF79F
:1035800008FE28688463002202213046FDF701FE10
:103590002868C463002204213046FDF7FAFD28683C
:1035A00004643046BDE8704000220821FDF7F1BDFB
:1035B000B80600200008024010B500212248FEF79E
:1035C00077FE04212048FEF773FE08211E48FEF70F
:1035D0006FFE0C211C48FEF76BFE3C211B48FEF7DA
:1035E00045FC1A480168CA6842F00102CA600068D6
:1035F00042F2107444623C211548FEF737FC14492E
:103600000868C26842F00102C260086844623C2156
:103610001048FEF72BFC0F490868C26842F001020F
:10362000C260086844623C210B48FEF71FFC0A494F
:103630000868C26842F00102C26008684462BDE8DE
:1036400010400648FEF75CBAB80600204807002084
:1036500090070020D8070020200800204009002003
:10366000FEE70A2002F09AF9FBE700000E490F4B33
:10367000002809680BDB02DC4FF0000004E041F693
:103680003802904200DB10464863002208E0084AF6
:10369000904200DC104642F210721044486301224E
:1036A00001211846FDF775BDB8060020000802404C
:1036B000C8E7FFFF0E490F4B002809680BDB02DC4F
:1036C0004FF0000004E041F63802904200DB104663
:1036D0008863002208E0084A904200DC104642F26B
:1036E000107210448863012202211846FDF751BD73
:1036F000B806002000080240C8E7FFFF0E490F4B44
:10370000002809680BDB02DC4FF0000004E041F602
:103710003802904200DB1046C863002208E0084AE5
:10372000904200DC104642F210721044C86301223D
:1037300004211846FDF72DBDB80600200008024000
:10374000C8E7FFFF0E490F4B002809680BDB02DCBE
:103750004FF0000004E041F63802904200DB1046D2
:103760000864002208E0084A904200DC104642F259
:10377000107210440864012208211846FDF709BDA3
:10378000B806002000080240C8E7FFFF00B5034666
:10379000B0EE412A283000F01BF893ED110AF0EE4C
:1037A000420A184600F014F893ED070A83ED140A54
:1037B00000BD0000C0ED061A80ED082A80EC030A67
:1037C0009FED020A80ED090A70470000000000002A
:1037D00030EE601AD0ED031AC0ED041AB5EEC01A2F
:1037E000F1EE10FA02DBB0EE410A01E030EEC00A61
:1037F000D0ED090AB4EEE00AF1EE10FA04D29FED22
:103800002C0A80ED030A01E080ED031AD0ED030AD3
:1038100090ED021A10EE901A30EEE10A254A91421C
:1038200020EE011A90ED000A00EE801A80ED071AD2
:1038300004DC10EE901A204A914220D990ED050A3E
:10384000D0ED011A00EEA10A80ED050AD0ED060ABE
:10385000F1EE601AB4EEE10AF1EE10FA02D8B0EE21
:10386000610A06E0B4EEE00AF1EE10FA01DBB0EE18
:10387000600A80ED050A31EE000A80ED070A90ED3E
:10388000080AD0ED070AB1EE401AF4EEC10AF1EED3
:1038900010FA02D8B0EE410A06E0F4EEC00AF1EEEA
:1038A00010FA01DAB0EE600A80ED070A70470000F6
:1038B000000000000000A0400000A0C000F064F87C
:1038C000DFF8B8802E4C2F4F40F2DC5540F6C4197B
:1038D0004FF47A764FF4FA6A98F8000030B3207A01
:1038E00000EE100A2648F8EE400A94ED000A143063
:1038F000FFF76EFF607A00EE100A2148F8EE400AEA
:1039000094ED010A3C30FFF763FF94ED030AD4ED18
:103910000C0A30EE200ABCEEC00A84ED190A94EDC0
:10392000040AD4ED160A30EE200A07E094ED030AEB
:10393000BCEEC00A84ED190A94ED040ABCEEC00A7C
:1039400084ED1A0A606EA84201D8284602E0484574
:1039500000D3484610EE101A6066B14201D83146D5
:1039600002E0514500D35146A16639688863396841
:10397000A06EC8630A2002F011F8ADE70000002035
:10398000E80000200007002010B5284C9FED260A13
:103990004FF416602DED048B042184ED030A9FED96
:1039A000240A84ED040A60664FF4E1609FED210A69
:1039B000A06684ED000A9FED200A204884ED010AEC
:1039C000FEF776FC08211D48FEF772FC1B48616E6D
:1039D000026891630068A16EC1639FED198ADFEDF3
:1039E000198A9FED199AB0EE482AF0EE681AB0EEE7
:1039F000491ADFED160AB0EE0C0A04F11400FFF7C5
:103A0000D9FEB0EE482AF0EE681AB0EE491ABDECC5
:103A1000048B04F13C00B0EE0C0ABDE81040DFED71
:103A20000C0AFFF7C7BE000000001645E8000020A2
:103A30000000E144000070420000944200070020B2
:103A400000401C45000000000000A042A69B443B33
:103A50006F12833A012001F0A1FFFBE710B550205F
:103A600080F31188BFF34F8FBFF36F8F02F058FCC4
:103A700018B104494FF080500860002080F311888D
:103A800010BD000004ED00E030B593B03021684671
:103A9000FCF7F3FC14210CA8FCF7EFFC1D480025F3
:103AA000016841F080510160006800F08050119081
:103AB0001948016841F4804101600068022400F463
:103AC0008040119001200090000401908001CDE918
:103AD000064008AA0420A82182E813000B9068463B
:103AE000FDF736FD08B172B6FEE70CA90F2081E89C
:103AF00031004FF4A0500F904FF4805010900521EA
:103B00000CA8FDF71BFC002801D072B6FEE713B02D
:103B100030BD00004038024000700040024801689B
:103B200041F470010160704788ED00E010B500F0CD
:103B300015FB0448FEF7E2F9BDE810400248FEF725
:103B4000DDB90000B8060020F80800200148FEF7A3
:103B5000D5B90000480700200148FEF7CFB90000A2
:103B6000900700200148FEF7C9B90000D8070020DF
:103B70000148FEF7C3B90000880B002010B50448C7
:103B8000FEF7BCF9BDE810400248FEF7B7B90000E7
:103B90002008002040090020F0B50268254C264D81
:103BA000264E274F274B4FF0804CA04209D060454E
:103BB00007D0A84205D0B04203D0B84201D0984205
:103BC00004D122F0700E4A6842EA0E02A0421BD0D5
:103BD000604519D0A84217D0B04215D0B84213D0D2
:103BE000984211D0184DA8420ED0184DA8420BD0C3
:103BF000174DA84208D0174DA84205D0164DA8422F
:103C000002D0164DA84203D122F44075CA682A4357
:103C10004D6922F080022A4302608A68C2620A6803
:103C20008262A04201D0984201D109690163012159
:103C30004161F0BD00000140000400400008004068
:103C4000000C0040000401400040014000440140DD
:103C50000048014000180040001C004000200040C7
:103C600010B501F01F030121046A99408C430462DE
:103C7000016A9A401143016210BD10B5846842EA9E
:103C8000032224F47F440A432243826010BD8268E9
:103C900022F070020A4342F0070181607047000081
:103CA000F0B5026A22F001020262036A4268846986
:103CB000124E24F073050C682C4323F002058B6828
:103CC0002B430D4DA84201D0B04205D123F0080787
:103CD000CB683B4323F00403A84201D0B04205D196
:103CE0004D6922F4407215438A692A434260846117
:103CF000496841630362F0BD0000014000040140D7
:103D0000F0B5026A22F010020262026A4368846916
:103D10000D6824F4E64444EA05248D6822F020026C
:103D200042EA05120F4D104EA84201D0B04206D112
:103D3000CF6822F0800242EA071222F04002A84235
:103D400001D0B04207D14D6923F4406343EA8503B3
:103D50008D6943EA85034360846149688163026237
:103D6000F0BD00000000014000040140F0B5026A0F
:103D700022F480720262026A4368C46922F400720B
:103D800024F073050C68124E2C438D6842EA05221C
:103D90000E4DA84201D0B04206D1CF6822F4006295
:103DA00042EA072222F48062A84201D0B04207D141
:103DB0004D6923F4405343EA05138D6943EA051323
:103DC0004360C4614968C1630262F0BD0000014004
:103DD0000004014030B5026A22F480520262046A93
:103DE0004268C3690D6823F4E64343EA05238D68FE
:103DF00024F4005444EA0534084DA84202D0084D8A
:103E0000A84204D14D6922F4804242EA8512426000
:103E1000C36149680164046230BD000000000140D4
:103E20000004014010B5036A046A24F0010404622E
:103E3000846924F0F00444EA021423F00A020A43DD
:103E40008461026210BD10B5036A23F0100303629F
:103E50008369046A23F4704343EA023224F0A00326
:103E600043EA01118261016210BD000018B50C48DF
:103E7000006801680B4A890605D543680A4C118819
:103E80006354491C11800168C90607D501680023E5
:103E900040680090044800F009F8138018BD000045
:103EA000E40A0020D8000020C84900208088024988
:103EB00040BA488070470000D80000200148FEF753
:103EC0004BBB0000180A002010B5806B0021C18593
:103ED000C184FEF73FFB10BD01680C3151E8002F93
:103EE00022F4907241E80023002BF5D101681431CF
:103EF00051E8002F22F0010241E80023002BF5D108
:103F0000016B012909D101680C3151E8002F22F021
:103F1000100241E80023002BF5D1202180F83E104B
:103F200000210163704708B590F83E10222901D0A6
:103F3000022008BD82684FF480539A4201D1016982
:103F400021B1816A9A421BD04AB10AE00268816AB3
:103F50005268C2F308020A80816A891C08E002697B
:103F600072B10268526802F07F020A70816A491CCD
:103F70008162C18D491E0904090CC18503D019E075
:103F800002685268F1E70168CA6822F02002CA603C
:103F90000168CA6822F48072CA6001684A6922F026
:103FA00001024A61202180F83E10016B012903D0F3
:103FB000FEF716FD002008BD0021016301680C31E9
:103FC00051E8002F22F0100241E80023002BF5D128
:103FD00001680A68D20602D50A6849680091818D95
:103FE000FEF7B7FAE6E7000070B50446006801691D
:103FF000E26821F44051114301612169A068E2693E
:1040000008436169114308432168CA6849F20C6397
:104010009A430243CA6020684169A26921F4407151
:104020001143416131492068884202D030498842B9
:1040300002D1FDF74DFA01E0FDF73AFAE2690023FB
:10404000192164253226B2F5004F626828D0A0FB02
:104050000101930F9200FCF767F90146B0FBF5F000
:104060006FF01802504301EB800006EB0010B0FB2C
:10407000F5F000F0F002B1FBF5F002EB0012B1FB3D
:10408000F5F06FF01803584301EB800006EB0010C9
:10409000B0FBF5F000F00F0021681044886070BD9F
:1040A000A0FB010192185B41FCF73EF90146B0FB11
:1040B000F5F00201B1FBF5F06FF01803584301EB86
:1040C000800006EBC000B0FBF5F000F0F80002EB5A
:1040D0004002B1FBF5F0584301EB800006EBC00055
:1040E000B0FBF5F000F00700D6E70000001001403B
:1040F0000014014081628285C28500210164222270
:1041000080F83E2080F83C10016921B10168CA683E
:1041100042F48072CA6001684A6942F001024A6151
:104120000068C16841F02001C160002070470000B4
:104130000148FEF711BA00005C0A00200148FEF7B2
:104140000BBA0000A00A002010B5FFF78FFEBDE8F3
:1041500010400148FEF700BAE40A002010B59FEDB8
:10416000070B084C53EC102B94ED000B51EC100B8B
:1041700002F0DCF9C4E9000110BD0000F168E38839
:10418000B5F8E43EE0000020FEE703B401984100EA
:10419000009850EAC12018BF04204A0D18BF40F013
:1041A000010040F2FF72B2EB515F08BF40F0020025
:1041B000012808BF052002B070470907090E002832
:1041C00004DB00F1E02080F80014704700F00F00DD
:1041D00000F1E02080F8141D70470000000000008E
:1041E00010B5B94A2DED020B2DED0C8B82B00F9955
:1041F00021F000409FEDB6CB90422CDBA0F1405364
:104200000E9AA3F17F631A430FD0B349884202DCB0
:1042100016D10E98A0B19DED0E0B02B0BDEC0C8B2B
:1042200002B0BDE8104001F02FBA0029C1BF9FEDD8
:10423000AC0B02B0BDEC0C8B02B0C8BF10BD16E0D9
:104240000120FCF749F902B0BDEC0C8B02B0BDE8CF
:10425000104001F02DBAA44A9FEDA59B9FEDA6AB9F
:1042600090425EDAA6499FEDA8CB814208DBB0EE12
:104270004C0AF0EE6C0A02B0BDEC0C8B02B010BD23
:104280009DED0E0B53EC102B51EC100B02F05AFC71
:1042900041EC180B9E480621B0EE480AF0EE680A81
:1042A000784401F0DDF853EC182B51EC100B02F0C0
:1042B00049FC41EC1B0B9748B0EE480AF0EE680A47
:1042C0000421784401F0CCF853EC182B51EC100B7E
:1042D00002F038FC53EC192B02F028F941EC100BDA
:1042E00051EC1B0B53EC102B02F0D4F941EC100BEA
:1042F00053EC102B9DED0E0B51EC100B02F022FC39
:1043000053EC1A2B02F052FD9DED0E1B53EC112BBA
:1043100002F04CFD53EC1C2B02F048FD41EC100B5D
:10432000A9E79FED7D8B9FED7EBB9DED0E0B0029D8
:1043300053EC192B51EC100B52DA02F0F7F853EC56
:10434000182B02F0FFFB41EC180B77480621B0EE6A
:10435000480AF0EE680A784401F082F853EC182B12
:1043600051EC100B02F0EEFB41EC1D0B6F48B0EE70
:10437000480AF0EE680A0421784401F071F853EC21
:10438000182B51EC100B02F0DDFB53EC192B02F053
:10439000CDF841EC190B51EC180B01F05FFD41EC2D
:1043A000180B53EC192B51EC1D0B02F073F953EC65
:1043B000182B02F0C7FB53EC1A2B02F0CFFD41EC97
:1043C000100B51EC180B53EC102B02F0AFF853EC20
:1043D0001B2B02F0B7FB53EC1C2B02F0E7FC6DE04B
:1043E00002F0E4FC53EC182B02F0ACFB41EC180B90
:1043F00001F034FD41EC1A0B00208DED00AB009074
:104400009DED000B51EC1A0B53EC102B02F08EF8C3
:104410009DED000B41EC1C0B53EC102B51EC100BE1
:1044200002F090FB53EC182B02F0C0FC53EC1C2B59
:1044300002F030F941EC1C0B3D48B0EE480AF0EEBA
:10444000680A0621784401F00BF853EC182B51EC64
:10445000100B02F077FB41EC1D0B3648B0EE480A1A
:10446000F0EE680A0421784400F0FAFF53EC182BB0
:1044700051EC100B02F066FB53EC192B02F056F8CE
:1044800041EC100B51EC1D0B53EC102B02F002F918
:1044900053EC1A2B02F056FB53EC1C2B02F046F89F
:1044A00041EC100B53EC102B9DED000B51EC100B5D
:1044B00002F03CF853EC1B2B02F044FB41EC100BD8
:1044C000D9E60000000000000000F03F00000000FE
:1044D000182D4454FB2109400000F07F000000002B
:1044E00000000000000000000000E03F00000000AD
:1044F000000000000000F03F075C143326A6913C4A
:104500000000603C00000000182D4454FB21F93FDE
:10451000F430000002310000000000000000E03F25
:1045200000000000000000403E3000004C30000061
:10453000502F00005E2F000070B5C1482DED020B1A
:104540002DED0E8B82B0119D25F000449FEDBEDB5A
:104550009FEDBFEB84423EDBA4F140511098A1F1E6
:104560007F6108430FD0BC48844202DC28D11098F8
:1045700030B39DED100B02B0BDEC0E8B02B0BDE868
:10458000704001F081B89DED100B53EC1D2B51ECE8
:10459000100B02F0D7FA9DED100B41EC180B53EC09
:1045A0001E2B51EC100B02F0CDFA53EC182B01F03E
:1045B000BDFF41EC100B02B0BDEC0E8B02B070BD24
:1045C0000120FBF789FF02B0BDEC0E8B02B0BDE805
:1045D000704001F06DB8A1489FEDA18B844256DA7E
:1045E0009DED100BB4F1795F0ADA51EC100BFFF777
:1045F000CCFD042808BF01F06BF89DED100BDAE745
:1046000053EC102B51EC100B02F09CFA41EC190BFF
:1046100095480621B0EE490AF0EE690A784400F0A8
:104620001FFF53EC192B51EC100B02F08BFA41ECED
:104630001A0B8E48B0EE490AF0EE690A042178445C
:1046400000F00EFF53EC192B51EC100B02F07AFA2C
:1046500053EC182B01F06AFF41EC100B51EC1A0BD4
:1046600053EC102B02F016F8CDE900019DED000B84
:1046700053EC102B9DED100B51EC100B02F062FA75
:104680009DED101B53EC112B01F050FFD2E09DED7E
:10469000100B51EC100B01F031F953EC182B02F018
:1046A00085FB9FED730BCDE9000153EC102B9DEDC5
:1046B000000B51EC100B02F045FA41EC190B6E485F
:1046C0000621B0EE490AF0EE690A784400F0C8FE0F
:1046D00053EC192B51EC100B02F034FA41EC1B0B8C
:1046E0006648B0EE490AF0EE690A0421784400F009
:1046F000B7FE53EC192B51EC100B02F023FA53ECDC
:10470000182B01F013FF41EC1C0B51EC190B01F0BD
:10471000A5FB41EC180B5A489FED5BABA04222DC95
:1047200053EC1C2B51EC1B0B01F0B4FFCDE9000145
:104730009DED000B51EC180B53EC102B02F002FA1C
:1047400053EC182B01F0F2FE53EC1A2B02F0FAF99D
:1047500053EC1D2B02F002FC53EC1E2B02F026FB47
:1047600041EC100B5FE08DED008B002000909DED83
:10477000000B51EC180B53EC102B01F0D7FE9DED04
:10478000000B41EC1E0B53EC102B51EC100B02F004
:10479000D9F953EC192B02F009FB53EC1E2B01F055
:1047A00079FF41EC190B53EC1C2B51EC1B0B01F066
:1047B00071FF41EC1B0B53EC1A2B51EC190B02F05F
:1047C000C1F953EC1D2B02F0F1FA41EC190B53EC3B
:1047D0001A2B51EC180B02F0B5F953EC1B2B02F01D
:1047E000B1F953EC192B02F0B9FB9DED000B41EC34
:1047F000180B53EC1A2B51EC100B02F0A3F99FEDA0
:10480000249B53EC192B02F0D1FA41EC100B51EC24
:10481000180B53EC102B02F0A1FB53EC192B02F0F8
:10482000C5FA41EC100B002D3FF7C5AE51EC100B53
:1048300001F03EFE41EC100BBDE600000000000060
:104840000000F03F00000000075C143326A6913CF6
:10485000182D4454FB21F93F0000F07F0000E03F99
:10486000000000000000F03FC82D0000D62D000021
:10487000000000000000E03F1A2D0000282D00007D
:104880003333EF3F00000000000000000000004054
:10489000182D4454FB21E93F70B59B482DED020BC8
:1048A0002DED068B079D25F00044A04218DC9748AB
:1048B000844202DC0AD1069840B19DED060BBDECA6
:1048C000068B02B0BDE8704000F0DEBE002DCCBF0C
:1048D0009FED8F0B9FED900BBDEC068B02B070BD72
:1048E0008F48A04215DD8F48A042D8BF4FF0FF345B
:1048F00058DD9DED060B51EC100BFFF746FC04282C
:1049000008BF00F0E5FE9DED060BBDEC068B02B086
:1049100070BD9DED060B51EC100B00F0EFFFCDE9E3
:10492000060181489FED828BA0423CDD8248A04277
:104930001FDD00249FED82AB9DED060B53EC1A2B7F
:1049400051EC100B01F0F2FD9DED060B41EC190B43
:1049500053EC1A2B51EC100B02F0F4F853EC182B1B
:1049600002F0FCFA53EC192B01F094FECDE906019C
:1049700049E09DED060B012453EC182B51EC100B74
:1049800001F0D4FD9DED060B41EC190B53EC182BF7
:1049900051EC100B02F0E2FA53EC192B01F07AFE05
:1049A000CDE906012FE06848A0421FDD02249FEDFB
:1049B000689B9DED060B53EC192B51EC100B02F08C
:1049C000C1F853EC182B01F0B1FD9DED060B41EC45
:1049D000180B53EC192B51EC100B02F0BFFA53ECEF
:1049E000182B01F057FECDE906010CE09DED060BFA
:1049F000032453EC102B9FED580B51EC100B01F0DE
:104A000049FECDE906019DED060B53EC102B51EC50
:104A1000100B02F097F841EC180B53EC182B02F036
:104A200091F841EC190B4E480621B0EE490AF0EE20
:104A3000690A784400F014FD53EC182B51EC100B6C
:104A400002F080F841EC180B4648B0EE490AF0EE4F
:104A5000690A0521784400F003FD53EC192B51EC51
:104A6000100B02F06FF841EC100B51EC180B53ECEB
:104A7000102B002C0EDA01F059FD9DED061B53ECB6
:104A8000112B02F05FF89DED061B53EC112B02F089
:104A90008DF935E001F04AFD9DED061B53EC112B1D
:104AA00002F050F841EC100B2F48784400EBC400A2
:104AB00090ED001B51EC100B53EC112B02F04EFA51
:104AC0009DED061B53EC112B02F048FA41EC100B44
:104AD0002648784400EBC40090ED001B51EC100B0D
:104AE00053EC112B02F062F941EC100B002DA2BF28
:104AF000BDEC068B02B070BD51EC100B01F0D8FC80
:104B000041EC100B01E70000000010440000F07FB2
:104B1000182D4454FB21F93F182D4454FB21F9BFB3
:104B20000000DC3F0000203E0000F33F00000000DA
:104B3000000000000000F03F0000E63F0000000021
:104B40000000000000000040008003400000000062
:104B5000000000000000F83F000000000000F0BF6F
:104B60006A2A0000202A0000AA2900006229000009
:104B700070B56F4E2DED040B2DED048B82B0DDF87A
:104B800024C0DDE907235C422CF000411C4341EACC
:104B9000D474069D22F00040B44205D86C422C43E8
:104BA00040EAD474B4420BD99DED081B9DED060B71
:104BB00002B0BDEC048B04B0BDE8704000F06EBDE7
:104BC000ACF14054A4F17F641C430BD0022404EAEE
:104BD000AC7444EAD27405439FED578B9FED582B7C
:104BE00007D015E09DED060B51EC100B00F080FD99
:104BF00042E0002C11BF012C9DED060B02B0BDEC74
:104C0000048B04BF04B070BD022C38D0032C3BD001
:104C10000B439FED4D1B9FED4E0B0AD0B14218D1B7
:104C2000B04209D121F0804120F0804009910790E5
:104C30000FE0002A15DA10E0474B7B44002C08BF38
:104C400093ED000B0DD0012C10D0022C17D0032CAB
:104C50001AD0B0421DD1002A03DAB0EE410AF0EEBC
:104C6000610A02B0BDEC048B04B070BD93ED000B83
:104C700051EC100B01F01CFC41EC100BF1E7B0EE15
:104C8000480AF0EE680AECE7B0EE420AF0EE620A7B
:104C9000E7E7401A00159FED329B3C28C8BF8DED19
:104CA000000B17DCBCF1000FBCBF10F13C0F8DED09
:104CB000009B0FDB9DED080B53EC102B9DED060BBD
:104CC00051EC100B01F0E6FC00F018FE00F010FDB6
:104CD000CDE90001B4B1012C10D0022C9FED220BC4
:104CE00053EC102B9DED000B51EC100B19D002F082
:104CF00035F953EC182B02F031F9BDE7019880F03B
:104D0000004001909DED000B53EC192B51EC100B62
:104D100001F018FE04BF0220FBF7DEFB9DED000B47
:104D20009FE702F01BF953EC182B02F03FF8A3E7C2
:104D30000000F07F00000000182D4454FB210940C2
:104D4000182D4454FB2109C0182D4454FB21F9BFF0
:104D5000182D4454FB21F93FC22800000000000038
:104D60000000000000000000075C143326A6A13CF0
:104D700010B52F499FED2C1B2DED020B84B005982B
:104D800020F000408842DCBF00209DED040B32DDA6
:104D90002849884209D1049840B94FF00100FBF737
:104DA0009BFB00F085FC06B010BD05DB9DED040B00
:104DB00000F06AFC06B010BD68469DED040B00F0E3
:104DC0007BF810F0030011D0012818D09DED021BD4
:104DD0009DED000B02281AD000F08AFA51EC100B5E
:104DE00001F066FB06B041EC100B10BD9DED021BFF
:104DF0009DED000B012000F0AFFB06B010BD9DED56
:104E0000021B9DED000B00F073FA06B010BD0120EF
:104E100000F0A2FB51EC100B01F04AFB06B041EC94
:104E2000100B10BD0000000000000000000000009A
:104E3000FB21E93F0000F07F00B52DED048BB0EEC3
:104E4000409AF0EE609A83B051EC190B01F0BAFF72
:104E500041EC180B18EE100A18EE901A8DED008B2D
:104E6000002818BF0120084320F00040C0F17F60F7
:104E700000F1E040C00F14D019EE101A19EE900A9C
:104E80008DED009B002918BF0121084320F0004050
:104E9000C0F17F6000F1E040C00F04BF0120FBF7CC
:104EA0001BFBB0EE480A03B0F0EE680ABDEC048BC1
:104EB00000BD0000000000002DE9F14F04462DED7B
:104EC000020B2DED088B8AB09FEDE70B80ED020BF6
:104ED000139EE74826F0004585420ADC9DED120B43
:104EE000002084ED000B0AB0BDEC088B03B0BDE8D8
:104EF000F08FE0489FEDE0AB9FEDE1BBA84247DDBE
:104F0000E14F9FEDE39B9FEDE48B9DED120B53EC86
:104F10001A2B51EC100B002E1CDD02F01FF841EC97
:104F2000100BBD4208D053EC1B2B51EC100B02F0C0
:104F300015F8C4E900010BE053EC192B51EC100BF0
:104F400002F00CF853EC182B02F008F8C4E9000149
:104F50000120C8E701F0EAFA41EC100BBD4208D08D
:104F600053EC1B2B51EC100B01F0E0FAC4E90001EB
:104F70000BE053EC192B51EC100B01F0D7FA53EC6A
:104F8000182B01F0D3FAC4E900014FF0FF30AAE773
:104F9000C348A84279DB9DED120B51EC100B00F0D9
:104FA000ADFC41EC180B9FEDC00B53EC102B01F046
:104FB000C9FD9FEDBF1B53EC112B01F0B7FA01F0B7
:104FC000FDFC074601F057FD41EC190B53EC1A2B81
:104FD00001F0B8FD53EC182B01F0E8FE41EC180B82
:104FE00053EC1B2B51EC190B01F0ACFDDFF8C8A200
:104FF00041EC100B4FEA15580125FA4453EC102BE5
:1050000051EC180B01F0AAFF032DC4E900013DD0BB
:10501000C1F30A5005EB4511A8EB0000113981429C
:1050200034DA0AEB051BB0EE48AA9BED000BF0EE5C
:1050300068AA53EC102B51EC190B01F083FD41ECE5
:105040001B0B51EC1A0B53EC1B2B01F087FF41ECAF
:10505000180B51EC1A0B53EC182B01F07FFF53EC9B
:105060001B2B01F07BFF9BED020B41EC1A0B53EC69
:10507000102B51EC190B01F065FD53EC1A2B01F0CC
:105080006DFF41EC100B6D1CB8E70EE0002EA8BFC1
:105090003846BFF628AF94ED000B51EC100B01F031
:1050A00007FAC4E9000178421DE7C6F3130040F493
:1050B000801EC6F30A50A0F2F530471100F01F051C
:1050C000C5F12000DDF848B0089000200690079058
:1050D0000520EC467949002D07EB0002794408BF12
:1050E00051F8221009D051F8223001EB8201AB4077
:1050F0004A68089922FA01F11943A1FB0E26A1FB87
:105100000B131A449A4234BF0123002303EB060811
:105110000CEB8003D3E901A60E448E4234BF01217B
:10512000002192448A4411B1924502D903E092458C
:1051300001D2012100E00021C3E901A641444CF85D
:105140002010011EA0F10100C4DC029800F1005003
:10515000850F0298DDE903678000DDF8148001F017
:105160008AFC41EC1A0B304601F09CFC9FED541B6D
:1051700053EC112B01F0E6FC41EC1B0B384601F01F
:1051800091FC9FED511B53EC112B01F0DBFC41EC2A
:10519000180B404601F086FC9FED4D1B53EC112B84
:1051A00001F0D0FC41EC190B51EC180B53EC192B0E
:1051B00001F0BCF953EC1B2B01F0B8F953EC1A2B9E
:1051C00001F0B4F9CDE90801002008909DED080B2D
:1051D00053EC1A2B51EC100B01F0C0FE53EC1B2BBF
:1051E00001F0BCFE53EC182B01F0B8FE53EC192B68
:1051F00001F0DCFD9FED381B53EC112B01F0A2FCFC
:105200009FED370B41EC180B53EC102B9DED080B69
:1052100051EC100B01F096FC53EC182B01F086F9C1
:105220009FED310B41EC180B53EC102B9DED080B4F
:1052300051EC100B01F086FC53EC182B01F076F9C1
:1052400041EC100B139810F0004F06D06D4251EC5A
:10525000100B01F02DF941EC100B284684ED000BEA
:1052600041E6000000000000000000000000000017
:10527000FB21E93F7CD9024000004054FB21F93F6B
:105280003163621A61B4D03DFB21F93F0000000098
:105290000000601A61B4D03D7370032E8A19A33BDD
:1052A000FB2139410000000083C8C96D305FE43F35
:1052B000000000000000E03F0A2500005824000024
:1052C000000000000000103E000000000000103C44
:1052D000000000000000103A182D4454FB21F93D55
:1052E0003326A611460B113C00000054FB21F93D6A
:1052F00010B52DED040B2DED088B82B0B0EE419A68
:10530000F0EE619A0B9820F000449FED4BABB4F1A6
:10531000795F11DA9DED0A0B51EC100B01F04EFB99
:10532000002801BFB0EE4A0AF0EE6A0A02B0BDECF6
:10533000088B04BF04B010BD9DED0A0B53EC102B7D
:1053400051EC100B01F0FEFB41EC180B3C48062120
:10535000B0EE480AF0EE680A784400F081F853ECA9
:10536000182B51EC100B01F0EDFB9DED0A0B41ECFD
:105370001B0B53EC192B51EC100B01F0E3FB41EC30
:10538000190B53EC1B2B51EC180B01F0DBFB53EC0E
:10539000192B01F0E3FD9FED2C0B41EC190B53ECA5
:1053A000102B51EC180B01F0CDFB41EC100B2848F1
:1053B000844210DA53EC192B51EC100B01F0CEFDA6
:1053C00053EC1A2B01F0F2FC41EC100B02B0BDECD7
:1053D000088B04B010BD1F48A042BCBF9FED1E1B30
:1053E0008DED001B06DBA4F500100190002000905D
:1053F0009DED001B51EC100B53EC112B01F0AEFD99
:105400009DED000B41EC180B53EC102B51EC1A0BDB
:1054100001F0A4FD41EC1A0B53EC192B51EC180BC5
:1054200001F09CFD53EC1A2B01F0C0FC41EC100B79
:10543000CCE7000000000000000000000000F03F8A
:105440007421000000000000000000000000E03FA8
:105450003333D33F0000E93F000000000000D23F9B
:1054600070B504462DED028B4D1E00EBC500B0EE6D
:10547000408AF0EE608A90ED000B35F0060017D000
:1054800053EC182B51EC100B01F05CFB41EC100BB2
:105490006D1E04EBC50090ED001B51EC100B53EC9E
:1054A000112B01F043F841EC100B35F00600E7D169
:1054B000022D36D0042D1CD0062D1CBFBDEC028B56
:1054C00070BD53EC182B51EC100B01F03BFB94ED2D
:1054D0000A1B53EC112B01F029F853EC182B01F0A7
:1054E00031FB94ED081B53EC112B01F01FF841EC3C
:1054F000100B53EC182B51EC100B01F023FB94ED27
:10550000061B53EC112B01F011F853EC182B01F092
:1055100019FB94ED040B53EC102B01F007F841EC50
:10552000100B53EC182B51EC100B01F00BFB94ED0E
:10553000021B53EC112B00F0F9FF53EC182B01F078
:1055400001FB94ED001B53EC112B00F0EFFFBDECC1
:10555000028B41EC100B70BD31B504462DED040BF0
:105560002DED0A8BB0EE41BAF0EE61BA0B989DEDCD
:105570000A0B20F00040B0F1795F0DDA51EC100B0E
:10558000FEF703FE042808BF00F0A2F89DED0A0B09
:10559000BDEC0A8B05B030BD53EC102B51EC100B59
:1055A00001F0D0FA41EC180B9DED0A0B53EC182BCF
:1055B00051EC100B01F0C6FA41EC190B2C48B0EE7F
:1055C000480AF0EE680A05217844FFF749FF9FED8D
:1055D0002ACBB0EE40AAF0EE60AA9CB353EC1C2B91
:1055E00051EC190B01F0AEFA41EC1C0B53EC1A2BE9
:1055F00051EC190B01F0A6FA9FED210B41EC190BB0
:1056000053EC102B51EC1B0B01F09CFA53EC192BB3
:1056100001F0A4FC53EC182B01F094FA53EC1B2B73
:1056200001F09CFC53EC1C2B01F098FC9DED0A1B37
:1056300053EC112B01F0BAFBBDEC0A8B05B041EC29
:10564000100B30BDFFE753EC1A2B51EC180B01F097
:1056500079FA53EC1C2B00F069FF53EC192B01F085
:1056600071FA9DED0A1B53EC112B00F05FFFE3E78D
:105670000420000000000000495555555555C5BF90
:10568000000000000000E03F10B553EC102B51EC7F
:10569000100B00F04BFF41EC100B10BD10B553EC9C
:1056A000112B51EC100B00F041FF41EC100B10BD21
:1056B0009FED050B10B553EC102B51EC100B00F0C7
:1056C000E9FF41EC100B10BD0000000000000000DD
:1056D0009FED050B10B553EC102B51EC100B01F0A6
:1056E00031FA41EC100B10BD00000000000000106A
:1056F00010B541EC100BFFF7CFF851EC100B10BDBB
:105700002DED0C8B00216748FCF7D2FD0021664887
:10571000FCF7CEFD00216548FCF7CAFD0021644876
:10572000FCF7C6FD00216348FCF7C2FD5D4D624CED
:105730002968208848635C4EE088316848635B4F85
:10574000A08839684863DFF868816188D8F800006C
:105750004163DFF860912189D9F80000416300209E
:10576000E060C820206196209FED542B9FED551BD3
:105770009FED560B60615748FBF7AAF9BA46B3464E
:1057800047464E46DFF84C81DFF84C9108F1380867
:105790009FED528B9FED53BB9FED54CB9FED55DB9F
:1057A0004C4901F13800FAF7DBFE3E4821880068D9
:1057B0004163DBF80000E1884163DAF80000A1886A
:1057C00041633968608848633168208948630821EB
:1057D0004D464846FBF7D8FCD8B96069401C60616B
:1057E00001F049F941EC1A0B206901F044F941EC50
:1057F000190BE06801F03FF941EC100BB0EE4A2ABA
:10580000F0EE6A2AB0EE491AF0EE691A3148FBF759
:105810005FF910212846FBF7B7FCD8B96069401E34
:10582000606101F028F941EC1A0B206901F023F9BD
:1058300041EC190BE06801F01EF941EC100BB0EEE1
:105840004A2AF0EE6A2AB0EE491AF0EE691A2148A7
:10585000FBF73EF998ED000B454653EC182B51EC45
:10586000100B01F06FF953EC1B2B01F09FFA01F0C4
:10587000D5F8608095ED020B53EC1C2B51EC100B0E
:1058800001F06CFB53EC182B01F05CF953EC1D2B71
:1058900000F04CFE01F0C2F8A080322000F07EF84B
:1058A0007EE70000B0080020F808002088090020EA
:1058B000D0090020680800200C0000200000000033
:1058C00000C06240000000000000694000000000CD
:1058D000000000000804002000100240B81E85EB04
:1058E000513826400000000000A89640000000004B
:1058F000008056400000000000E0954082B0CDE9F5
:10590000000121F0004001909DED000B02B051EC30
:10591000100B7047FBF750FCFEF7B6F8FDF736FAB0
:10592000FDF790F9FDF73EFCFDF7C6FDFDF7E0FD44
:10593000FDF7FAFDFDF7B8FBFDF788FCFDF7BCFCB1
:10594000FDF724FBFDF7EEFCFDF722FDFDF7EAFA7B
:10595000FDF796FDFDF7B2FAFDF73EFBFDF770FB94
:10596000FDF74CFD012207490748FDF723F80549DB
:105970000122491C0548FDF71DF8FDF779F900F0F3
:1059800014F8FEE7260000205C0A0020A00A002090
:1059900001460020842900D0C81C704710B500B90A
:1059A000012000F059FB002010BD10B500F07AFB7B
:1059B000002010BD7FB50D4604464169B0F90800CE
:1059C00081B1A16971B1FFF7E3FFD4E905128DE858
:1059D0000700D4E900102B46226900F076FC039002
:1059E00004B070BDFFF7D4FF03A9CDE90001208A00
:1059F0002B4682B2D4E9001000F03AFC012801D015
:105A00000020EDE70398EBE72DE9F041184C0F4635
:105A10000546E6682068001D00F057FA38B920688E
:105A200090F82C1001208840216981432161681C75
:105A300007D137B12168BDE8F0410E48091D00F0DB
:105A400087BA20683544B5424560216805D2A06B0D
:105A5000BDE8F041091D00F063BA606B091D00F05C
:105A60005FFAA06A854200D2A562BDE8F08100001D
:105A70006C000020AC0C00202DE9F041054600F040
:105A800073FA2E4CA068401CA06020682C4F10B107
:105A9000606940B32DE02560A068012829D1002667
:105AA00006EB860007EB800000F02CFA761C072E30
:105AB000F6D323488C3000F025FA2148A03000F0BE
:105AC00021FA1F48B43000F01DFA1D48C83000F01C
:105AD00019FA1B48DC3000F015FA19488C30606365
