:020000040800F2
:10000000A84E0020E9020008993000085327000894
:10001000992F00084B050008C13B000800000000B4
:10002000000000000000000000000000290200089D
:1000300051090008000000008502000895340008FE
:100040000303000803030008030300080303000878
:100050000303000803030008030300080303000868
:100060000303000803030008030300080303000858
:100070000303000803030008030300080303000848
:100080000303000803030008030300080303000838
:100090000303000803030008030300080303000828
:1000A0000303000803030008653500080303000884
:1000B0000303000885350008913500080303000894
:1000C00003030008030300080303000803030008F8
:1000D00003030008693B0008753B0008813B0008EA
:1000E000030300080303000803030008B5350008F4
:1000F00003030008030300080303000803030008C8
:1001000003030008030300089D35000803030008EB
:10011000F53800080303000803030008A9350008A8
:100120000303000803030008030300080303000897
:100130000303000803030008030300080303000887
:100140000303000803030008030300080303000877
:100150000303000803030008C9080008030300089C
:100160000303000803030008030300080303000857
:100170000303000803030008030300080000000055
:10018000030300080303000800F002F800F03CF845
:100190000AA090E8000C82448344AAF10107DA45E2
:1001A00001D100F031F8AFF2090EBAE80F0013F0F8
:1001B000010F18BFFB1A43F001031847044B00005E
:1001C000244B0000103A24BF78C878C1FAD85207EF
:1001D00024BF30C830C144BF04680C6070470000C1
:1001E0000023002400250026103A28BF78C1FBD840
:1001F000520728BF30C148BF0B6070471FB504F0DD
:1002000067FC1FBD10B510BD00F061F91146FFF786
:10021000F5FF03F0E7FC00F07FF903B4FFF7F2FF0E
:1002200003BC00F087F900002C4B19680868B0E89F
:10023000F04F80F30988BFF36F8F4FF0000080F319
:10024000118870470000000008480068006880F3CB
:1002500008884FF0000080F3148862B661B6BFF3DF
:100260004F8FBFF36F8F00DF00BF00BF08ED00E0CE
:10027000DFF80C00016841F470010160704700BFB5
:1002800088ED00E0EFF30980BFF36F8F134B1A681E
:100290001EF0100F08BF20ED108A20E9F04F10600B
:1002A00009B44FF0500080F31188BFF34F8FBFF3B4
:1002B0006F8F04F05FF84FF0000080F3118809BCE5
:1002C00019680868B0E8F04F1EF0100F08BFB0ECD6
:1002D000108A80F30988BFF36F8F70474C000020AD
:1002E000EFF3058070470000094880470948004740
:1002F000FEE7FEE7FEE7FEE7FEE7FEE7FEE7FEE7D6
:10030000FEE7FEE704480549054A064B7047000032
:100310005535000889010008A8480020A84E002093
:10032000A84A0020A84A002053EA020C00F0698085
:100330002DE9F04B4FF00006002B1FBFB3FA83F5F9
:1003400003FA05F424FA05F65E4012BF1643B2FA2A
:1003500082F502FA05F4C5F120051EBF22FA05FC5C
:1003600044EA0C04203556EA044C4FEA144418BF02
:10037000641C4FF000084FF00009904271EB030C31
:1003800039D3002919BFB1FA81F701FA07F6B0FA9B
:1003900080F700FA07F6C7F120071EBF20FA07FC16
:1003A00046EA0C062037B6FBF4FCA7EB0507103F26
:1003B00007F01F0BCBF120060CFA0BFB2CFA06F60C
:1003C00044BFB3460026202FA4BF5E464FF0000B6B
:1003D0005BEA060C08BF4FF0010B19EB0B09ABFBF6
:1003E000027C48EB0608C01B06FB02CC0BFB03CCCF
:1003F00071EB0C01C1E70B46024641464846BDE899
:10040000F08B13B54FF000004FF00001AFF3008008
:10041000BDE81C40704710B5203AC0F00B80B1E831
:100420001850203AA0E81850B1E81850A0E8185029
:10043000BFF4F5AF5FEA027C24BFB1E81850A0E832
:10044000185044BF18C918C0BDE810405FEA827C4C
:1004500024BF51F8043B40F8043B08BF7047D20763
:1004600028BF31F8023B48BF11F8012B28BF20F804
:10047000023B48BF00F8012B70474FF0000200B567
:10048000134694469646203922BFA0E80C50A0E8B7
:100490000C50B1F12001BFF4F7AF090728BFA0E865
:1004A0000C5048BF0CC05DF804EB890028BF40F831
:1004B000042B08BF704748BF20F8022B11F0804F73
:1004C00018BF00F8012B704770477047704775469A
:1004D00000F02CF8AE4605006946534620F00700B0
:1004E000854618B020B5FFF70DFFBDE820404FF05E
:1004F00000064FF000074FF000084FF0000B21F00E
:100500000701AC46ACE8C009ACE8C009ACE8C009DA
:10051000ACE8C0098D46704710B50446AFF30080C3
:100520002046BDE81040FFF778BE00000048704745
:100530004448002001491820ABBEFEE72600020017
:100540007047012003F08AFBFBE7FEE70227154E08
:10055000154C00253078412812D061281DD0422842
:1005600019D043280ED044280ED045280ED0462856
:100570000ED0672811D04B280DD06B280DD00DE080
:10058000012006E0032004E0042002E0052000E052
:100590000620206002E0276000E02560642003F070
:1005A0005DFBD7E70D000020080000202DED028B39
:1005B00002F01EFD00F074F8344C354DB3EE0E8A97
:1005C000FBEE0E8A04F15006286801280DD002289F
:1005D0000ED003280FD0042810D0052811D00628EB
:1005E00012D0B0B10A281FD038E084ED018A35E07E
:1005F000C4ED018A32E084ED008A2FE0C4ED008A68
:100600002CE09FED240A01E09FED230A84ED020A0D
:1006100024E09FED220A84ED000A84ED010A84EDB6
:10062000020A02F0BFFC15E096ED010A174896EDAC
:10063000031AF8EEC00A96ED060A9430B8EEC00A26
:1006400002F0C0FD96ED250ABDEEC00A10EE100ABC
:1006500002F028FD2868A0B10A2812D000F0E6F8C0
:1006600000F0A6F8706902F01DFDD6F8AC0002F0AB
:100670003DFDD6F8440102F05DFDD6F8DC0102F044
:100680007DFD052003F0EAFA9EE70000340100201A
:1006900008000020CDCC4CBDCDCC4C3D000000006E
:1006A00010B53D482DED048B9FED398ADFED368A7C
:1006B0009FED369ADFED379AB0EE682AF0EE491AD0
:1006C000B0EE481AF0EE480AB0EE690A02F08EFD6C
:1006D0003148B0EE682AF0EE491AB0EE481AF0EE52
:1006E000480AB0EE690A983002F080FDB0EE682A40
:1006F000F0EE491AB0EE481AF0EE480AB0EE690A78
:10070000264802F073FD2548B0EE682AF0EE491A3B
:10071000B0EE481AF0EE480AB0EE690A983002F0DE
:1007200065FD1D48B7EE082AF0EE481AB0EE481AEB
:10073000F0EE480A9FED1A0A443802F057FD1648B9
:10074000B0EE682ADFED171AB0EE481ADFED160A90
:10075000B2EE040A283002F049FD0F489FED132A3B
:10076000F0EE481AB0EE481AF0EE480AB0EE000A71
:10077000503002F03BFD084940F2E3301C398861FB
:10078000BDEC048B10BD000000401C4600002F444F
:100790000000000000004842A0010020D00200201C
:1007A000CDCC4C3D0000FA436F12833A00007A44EE
:1007B00010B51D4C04F11C00D4ED030A94ED040A9D
:1007C00002F022FD94ED0E0A04F1B400BDEEC00A61
:1007D00084ED050AD4ED290A94ED2A0A02F014FDED
:1007E00094ED340A04F5A670BDEEC00A84ED2B0A20
:1007F000D4ED4F0A94ED500A02F006FD94ED5A0A2A
:1008000004F5F270BDEEC00A84ED510AD4ED750A0C
:1008100094ED760A02F0F8FC94ED800ABDEEC00A71
:1008200084ED770A10BD00008401002022489FED6E
:10083000210A9FED222A90ED001AD0ED013AD0ED69
:10084000020A9FED1F3A71EE231A33EEC11A50309F
:10085000F0EE612AF0EE413A40EEC02A40EE803AD6
:1008600000EEC01A40EE801A62EE822A63EE824ADF
:10087000DFED143A21EE021A82EE834AF3EE0E2ADD
:1008800021EE820AC0EE230A24EE224A80ED044AB9
:1008900084EEA34A20EEA20A24EE224A80ED764A94
:1008A00081EE034A24EE221A80ED2A1A80ED500AC6
:1008B0007047000000803643340100200000704281
:1008C000D2537B43D2537BC3014800F0B7B800003A
:1008D0009809002001681823CAB2103AB2FBF3F25B
:1008E000054B6FF30901032A9B5CC36500D9091D01
:1008F0008165084670470000104C000810B501469D
:1009000000208B698A6A4FF0C07453B1B3F5005F61
:1009100015D072B1012A0CD0022A0AD0032A09D1BB
:1009200004E01AB1012A06D0022A03D1C96AC9011A
:1009300000D5012010BDC96AA142FAD010BD002A1D
:10094000F7D0012AF2D0022AF3D0032AF3D010BD47
:100950007047000007480168CA6842F02002CA6078
:100960000068C16841F01001C160642003F076F9AD
:10097000FBE700005409002072B6FEE710B5012025
:1009800003F06CF9FBE72DE9F0410446876D00F0B8
:100990008DFA064694F835000025022806D08020FE
:1009A000606584F834500120BDE8F081206801685A
:1009B00021F0160101602068416921F08001416148
:1009C000206C08B9A06C20B12068016821F00801F2
:1009D00001602068016821F0010101600CE000F075
:1009E00065FA801B052807D920206065032084F85C
:1009F000350084F83450D7E720680068C007EED18E
:100A000094F85C103F208840B860012084F83500DD
:100A100084F834500020C7E790F83510022903D03D
:100A20008021416501207047052180F8351000685C
:100A3000016821F001010160002070472DE9F843B1
:100A400004464FF00009CDF8009063484FF416516A
:100A5000A56D0068B0FBF1F72E6894F85C100820D3
:100A600000FA01F131420FD021680A6852070BD514
:100A70000A6822F004020A6094F85C108840A860BA
:100A8000606D40F00100606594F85C104FF0010863
:100A900008FA01F0304208D021684969090604D5F6
:100AA000A860606D40F00200606594F85C1004205E
:100AB0008840304208D021680968890704D5A860B9
:100AC000606D40F00400606594F85C101020884070
:100AD000304218D021680968090714D5A860206839
:100AE0000168490304D50068000308D5A16C07E03C
:100AF0000168C90503D4016821F008010160216C77
:100B000009B12046884794F85C1020208840304284
:100B100031D021680968C9062DD5A86094F8350040
:100B200005282068016806D0490347D500680003FE
:100B30001DD4616C1CE021F0160101602068416940
:100B400021F080014161206C08B9A06C20B12068BF
:100B5000016821F00801016094F85C103F20884092
:100B6000A86084F8358084F83490216D1FE0E16B33
:100B700009B120468847606D00282BD0606DC00702
:100B800014D0052084F835002068016821F00101A7
:100B900001600098401C0090B84203D820680068AB
:100BA000C007F6D184F8358084F83490E16C0029D0
:100BB00010D001B02046BDE8F04308470168C905E0
:100BC000D5D4016821F01001016084F8358084F8E3
:100BD0003490CCE7BDE8F883480000202DE9F041CF
:100BE000044600F063F906465CB1022084F8350043
:100BF000002584F834502068016821F0010101606B
:100C00000DE00120BDE8F08100F050F9801B0528BF
:100C100005D920206065032084F83500F2E72068BC
:100C20000068C007F0D12268116820480140D4E96B
:100C300001031843D4E90336334318436369184367
:100C4000A3691843E3691843236A18430843616A98
:100C5000042903D1D4E90B13194308431060206819
:100C60004069666A20F0070130460E4301270428D8
:100C70000CD1A06A0643E06A40B12046FFF73EFE71
:100C800020B14020606584F83570BAE7206846617D
:100C90002046FFF71FFE94F85C203F2191408160C1
:100CA000656584F835700020ACE700003F8010F0E7
:100CB0002DE9F84FDFF8BCA10022012503264FF0F3
:100CC0000F090AF1040BAAF1040E00BF0B6805FA24
:100CD00002F42340A34270D10F7907F00307012FDC
:100CE00001D0022F16D187684FEA420806FA08FCA5
:100CF00027EA0C07D1F80CC00CFA08FC4CEA070CE8
:100D0000C0F808C04768A7430C79C4F300149440A6
:100D10003C4344600C79E443A4070AD0C4684FEA1A
:100D2000420C06FA0CF7BC438F6807FA0CF727430E
:100D3000C7600C7904F00304022C12D1D40800EB34
:100D4000840CDCF820405707FF0E09FA07F824EA64
:100D50000804D1F8108008FA07F848EA0408CCF82B
:100D6000208004684FEA420C06FA0CF7BC430F7966
:100D700007F0030707FA0CF7274307604C6814F4E1
:100D8000403F70D03C4C276847F480472760246878
:100D900022F0030704F480440094384C07EB040C61
:100DA000DCF8084897074FEA177809FA08F7BC43B8
:100DB000334FB84202D1002724E054E0314FB8420B
:100DC00001D101271EE0304FB84201D1022719E0BE
:100DD0002E4FB84201D1032714E02D4FB84201D164
:100DE00004270FE02B4FB84201D105270AE02A4F14
:100DF000B84201D1062705E0284FB84201D10727A4
:100E000000E0082707FA08F72743CCF80878DAF853
:100E100000405746D1F804C09C435FEACC2C00D573
:100E20001C433C60DBF800405F46D1F804C09C43A3
:100E30005FEA8C2C00D51C433C60DEF8004077460E
:100E4000D1F804C09C435FEA8C3C00D51C433C6055
:100E5000084F083F3C68D1F804C09C435FEACC3C93
:100E600000D51C433C60521C102AFFF42FAFBDE894
:100E7000F88F0000083C0140443802400030014037
:100E8000000002400004024000080240000C024042
:100E9000001002400014024000180240001C0240F2
:100EA0000AB1816170470904FBE7000001488068CE
:100EB000704700003C00002002488168027811441D
:100EC000816070473C0000200B4810B5016841F478
:100ED00000710160016841F480610160016841F4C2
:100EE00080710160032000F09FF80F2000F006F8E9
:100EF00000F050F8002010BD003C024030B505461F
:100F00001F4887B00024016841F02001016000689B
:100F100006A900F02000009001A800F031F9049823
:100F2000A8B100F04DF940001649174AB0FBF1F1A5
:100F30001648491E026040F2E732C0E90324C0E9C6
:100F40000114846100F0B6FB040003D015E000F04A
:100F500037F9E9E70D4800F027FC04000DD13720F0
:100F600000F034F8102D07D200222946372000F077
:100F70003BF80748056000E0012407B0204630BD7B
:100F80004038024040420F0000140040F8090020A1
:100F9000400000200C4882B0016841F480410160AB
:100FA000006800F4804000900748001F016841F08D
:100FB000805101600068002200F0805000900F21F5
:100FC000901E02B000F010B844380240002809DB3F
:100FD00000F01F02012191404009800000F1E02053
:100FE000C0F8001170470000F0B40E4B1B680C46AF
:100FF000C3F30223C3F10705042D00D90425191DED
:10100000072901D2002300E0DB1E012606FA05F1C4
:10101000491E214099409E40761E16403143F0BC47
:1010200002F0CFBD0CED00E0064900F007020868B1
:101030004FF6FF03184040EA0220034A10430860BD
:10104000704700000CED00E00000FA052DE9F047C4
:101050000E46050065D0DFF81481D8F80000F7B21D
:1010600000F00700B04207D288F80070D8F80000FE
:1010700000F00700B04254D128683D4C810712D5DA
:10108000400703D5206840F4E0502060287800072E
:1010900003D5206840F4604020602068A96820F0F3
:1010A000F000084320602878C0072DD030496868D8
:1010B0000839012812D0022813D0032811D009685A
:1010C000890700292DDA216821F0030101432160FD
:1010D000FFF7ECFE814641F2883A0EE00968890389
:1010E000EFE709688901ECE7FFF7E0FEA0EB0901F3
:1010F000514502D90320BDE8F0872068696800F0F7
:101100000C00B0EB810FEFD1D8F80010404601F091
:101110000701B14207D90770006800F00700B0422C
:1011200001D00120E7E72878400705D52068E96865
:1011300020F4E050084320602878000706D5206896
:10114000296920F4604040EAC100206000F058F8AE
:101150002168084AC1F30311515CC8400649086080
:1011600006480068FFF7CAFE0020C4E7003C0240C2
:1011700008380240184C00084800002040000020B9
:101180000F2202600C4A136803F0030343601368E4
:1011900003F0F0038360136803F4E053C360126844
:1011A0004FF4E05303EAD20202610448006800F001
:1011B000070008607047000008380240003C024009
:1011C0000448054900680968044AC1F38221515C5A
:1011D000C84070474800002008380240284C0008EA
:1011E0000448054900680968044AC1F34231515C6A
:1011F000C84070474800002008380240284C0008CA
:10120000154810B5006810F00C02144813D04110B6
:10121000042A0FD0082A0ED10F4C241F22682368FD
:1012200002F03F025B0207D52068C0F38810A0FBE4
:10123000010106E0084610BD2168C1F38811A1FB39
:1012400000010023FFF770F82168C1F30141491C38
:101250004900B0FBF1F010BD083802400024F40052
:101260002DE9F84F04006ED02078DFF84C93C007CA
:10127000A9F104054AD009F104000168C1F3810114
:10128000012908D00068C0F3810002280AD1D9F8EA
:101290000000400206D52868800337D56068002822
:1012A000E1D033E06068B0F5803F10D0B0F5A02FFA
:1012B000286810D020F480302860286820F480202E
:1012C00028606068A8B1FFF7F1FD06460DE02868C8
:1012D00040F48030F4E740F480202860F7E700BF56
:1012E000FFF7E4FD801B642873D828688003F7D5D6
:1012F0000CE0FFF7DBFD064605E000BFFFF7D6FD7B
:10130000801B6428F0D828688003F7D42078DFF8A1
:10131000AC8280074FF0000A3ED5A748001D016847
:1013200011F00C0F08D00068C0F3810002280BD127
:10133000D9F80000400207D42868800716D5E06875
:10134000012800D112E033E1E068B8B10120C8F80B
:101350000000FFF7ABFD064605E000BFFFF7A6FD66
:10136000801B0228C0D828688007F7D52868216923
:1013700020F0F80040EAC10028600DE0C8F800A0A5
:10138000FFF794FD064604E0FFF790FD801B02285E
:101390001FD828688007F7D42078000722D5864F09
:1013A00087486169703771B101210160FFF77EFDE7
:1013B000064604E0FFF77AFD801B022809D838684A
:1013C0008007F7D50EE0C0F800A0FFF76FFD0646D6
:1013D00005E082E0FFF76AFD801B02287DD83868AF
:1013E0008007F7D42078400768D5DFF8CCB1002714
:1013F0000BF13C0BDBF80000C0000BD4DBF8001055
:1014000041F08051CBF80010DBF80000012700F01C
:10141000805000906B4E3068C00510D4306840F4A6
:1014200080703060FFF742FD009005E0FFF73EFD61
:101430000099401A022850D83068C005F6D55E4E93
:10144000A0686C3601280FD00528306810D020F035
:1014500001003060306820F004003060A068B8B14E
:10146000FFF724FD00900FE0306840F00100F4E742
:1014700040F004003060F7E7FFF718FD0099411ACB
:1014800041F28830814266D830688007F4D50EE09A
:10149000FFF70CFD009007E0FFF708FD0099411AE7
:1014A00041F28830814256D830688007F4D42FB199
:1014B000DBF8001021F08051CBF80010A069C8B310
:1014C0003D49091D0968C1F3810102294AD002285A
:1014D000504607D0C8F8600000E03CE0FFF7E6FCAB
:1014E00004463BE04746C8F86000FFF7DFFC0646CD
:1014F00005E000BFFFF7DAFC801B02282BD8286824
:101500008001F7D4D4E907010843A16A2E4A4908AB
:1015100002EB0141626A41EA8211084394F82C10FF
:1015200040EA0161C9F8001001203866FFF7BEFCEF
:10153000044606E03EE000BFFFF7B8FC001B0228AF
:1015400009D828688001F7D534E000BFFFF7AEFC6A
:10155000001B022802D90320BDE8F88F286880010B
:10156000F4D427E00128F7D0D9F80000E26900F4AC
:10157000800191421CD1226A00F03F01914217D1B3
:1015800047F6C071626A0140B1EB821F10D1A26AB6
:101590004FF0FF3300F4403103EB5202B1EB024F46
:1015A00006D194F82C1000F07060B0EB016F01D000
:1015B0000120D1E70020CFE7043802400000474275
:1015C000800E4742007000400000FFFF70477047E8
:1015D00010B590F83C20012A22D0012280F83C204E
:1015E000CA688C6822F4407222434C6822F48062FC
:1015F00022430C6822F4006222430C6922F48052D8
:1016000022434C6922F400522243C969002322F488
:1016100080420A4301684A6480F83C30002010BDD3
:10162000022010BD70B590F83C20012A32D0012470
:1016300080F83C40022280F83D2003685A689D688B
:1016400022F070060A6832435A60134B02689A42CD
:1016500014D0B2F1804F11D0104B9A420ED0104BE3
:101660009A420BD00F4B9A4208D00F4B9A4205D0AA
:101670000E4B9A4202D00E4B9A4204D1496825F093
:1016800080031943916080F83D40002180F83C10B0
:10169000084670BD022070BD0000014000040040FB
:1016A00000080040000C00400004014000400140E0
:1016B0000018004010B5040003D094F83D0010B1AC
:1016C00007E0012010BD002084F83C00204600F017
:1016D0001FF8022084F83D00211D206801F078FFEA
:1016E000012084F8460084F83E0084F83F0084F826
:1016F000400084F8410084F8420084F8430084F8F4
:10170000440084F8450084F83D00002010BD00002E
:1017100008B52149026821488A4207D1016841F091
:1017200001010160006800F001000EE01B49091F83
:10173000B2F1804F11D01A4B9A4217D1016841F48F
:1017400080210160006800F48020009000220521C3
:101750001A20FFF749FC1A2019E0086840F0010040
:101760000860086800F00100009008BD0D48824242
:10177000FBD1086840F0400008600868002200F0D3
:101780004000009005212B20FFF72EFC2B20BDE808
:101790000840FFF71BBC0000000001404438024035
:1017A000004801400018004090F83D10012901D088
:1017B00001207047022180F83D100168CA6842F09C
:1017C0000102CA6000681149884214D0B0F1804F0C
:1017D00011D00F4988420ED00E4988420BD00E49D5
:1017E000884208D00D49884205D00D49884202D070
:1017F0000C49884204D1816801F00701062903D011
:10180000016841F0010101600020704700000140C3
:101810000004004000080040000C004000040140AB
:10182000004001400018004070B5044690F83C00AC
:101830000025012817D0012684F83C60022084F896
:101840003D002068826822F0770222F47F428260A5
:101850000868502838D00DDC20284FD005DC90B324
:10186000102811D14AE0022070BD302846D040280F
:101870000AD13BE060282FD070280DD0B0F5805FF2
:1018800003D0B0F5005F12D0012584F83D60002040
:1018900084F83C00284670BDCB68D1E9012120685E
:1018A00001F007FF2068816841F0770109E0CB680B
:1018B000D1E90121206801F0FCFE2068816841F433
:1018C00080418160E1E719E0CA684968206801F059
:1018D000C5FF5021206806E0CA684968206801F009
:1018E000CEFF6021206801F0EEFECEE7CA684968AD
:1018F000206801F0B3FF40212068F4E72268014628
:101900001046F0E72DE9F0410D46040003D094F8AD
:101910003D0018B108E00120BDE8F081002084F806
:101920003C00204600F040F8022084F83D0020688A
:10193000816844F2070291438160211D206801F013
:1019400047FE226890689169166A2B68AF69034365
:1019500040F20330814341EA0721A868EF69084358
:101960004FF6FC418843E96840EA072001432869B3
:101970002F6A000140EA0730084369686D6926F064
:10198000AA0646EA0515294393602268906154F837
:10199000460B0162012004F81F09E0752076E0760D
:1019A0002077A0750020B7E770B586B004461421F3
:1019B0006846FEF762FD4F4824684D4D00214D4AB0
:1019C00010380223AC4220D1146844F002041460A1
:1019D000126802F002020592026842F002020260FE
:1019E000006800F00200059030200090CDE9013140
:1019F000CDE9031369464048FFF75AF90022052153
:101A00001D20FFF7F1FA1D2023E03C4DAC4224D10C
:101A1000146844F004041460126802F00402059291
:101A2000026842F008020260006800F008000590B9
:101A30004FF440500090CDE90131CDE903136946E0
:101A40002F48FFF735F9002205211E20FFF7CCFAB9
:101A50001E20FFF7BBFA06B070BD2A4E0325B44224
:101A60001FD1146844F008041460126802F00802E0
:101A70000592026842F0010202600068009500F0E1
:101A800001000590CDE90131CDE9031369461E48F7
:101A9000FFF70EF9002205213220FFF7A5FA3220C8
:101AA000D7E71A4A9442D6D1124A121D146844F05C
:101AB00002041460126802F002020592026842F009
:101AC00004020260006800F004000590C02000904D
:101AD000CDE90131CDE9031569460D48FFF7E8F876
:101AE000002205212B20FFF77FFA2B20B1E7000011
:101AF000000400404038024000040240000800405A
:101B0000000C0240000C00400000024000040140B4
:101B10000008024070B590F83E60044690F83F50CF
:101B200090F8423090F84320022021B104290ED0D1
:101B3000012E1BD114E0012E18D1012B16D184F8EF
:101B40003E0084F8420001220021206820E0012D9F
:101B50000CD1012A0AD184F83F0084F8430014E034
:101B6000012D03D1012B01D1012A01D0012070BD2B
:101B700084F83E0084F83F0084F8420084F8430073
:101B800001220021206801F087FD01220421206844
:101B900001F082FD2068016841F001010160002030
:101BA00070BD704770B50446006801694FF00005CC
:101BB000C943890715D4C168C943890711D4E91EEF
:101BC000016101202077206880698007204602D0CB
:101BD000FFF7E7FF04E000F0DBF8204600F06DF9C6
:101BE000257720680169C943490717D4C168C943EB
:101BF000490713D46FF004010161022020772068A7
:101C0000806910F4407F204602D0FFF7CAFF04E04D
:101C100000F0BEF8204600F050F9257720680169F1
:101C2000C943090716D4C168C943090712D46FF024
:101C300008010161042020772068C06980072046E0
:101C400002D0FFF7AEFF04E000F0A2F8204600F05B
:101C500034F9257720680169C943C90617D4C168DA
:101C6000C943C90613D46FF0100101610820207721
:101C70002068C06910F4407F204602D0FFF791FF32
:101C800004E000F085F8204600F017F92577206879
:101C90000169C943C90708D1C168C943C90704D14B
:101CA000891E0161204600F06DF920680169C94371
:101CB000090609D4C168C943090605D46FF080013B
:101CC00001612046FFF782FC20680169C94349068B
:101CD00009D4C168C943490605D46FF040010161C8
:101CE000204600F03BFA20680169C94389060BD4FD
:101CF000C168C943890607D46FF0200101612046FD
:101D0000BDE87040FFF763BC70BD000030B587B020
:101D1000044614216846FEF7B0FB2468184D0021E4
:101D2000184802220123AC4211D1046844F0100487
:101D30000460006800F0100005904FF4D44000905B
:101D4000CDE90121CDE9031369460F4813E0B4F151
:101D5000804F12D1046844F002040460006800F06F
:101D6000020005904FF481600090CDE90121CDE99A
:101D7000031369460548FEF79BFF07B030BD00001E
:101D800000000140303802400010024000040240D0
:101D9000704770B5044690F83C0000260D460128B7
:101DA0000FD0012084F83C006AB1042A1DD0082A13
:101DB0002FD00C2A3FD00126002084F83C0030466A
:101DC00070BD022070BD206801F086FC206881692A
:101DD00041F0080181612068816921F0040181617D
:101DE000206881692A69114311E0206801F0A4FC90
:101DF0002068816941F4006181612068816921F472
:101E000080618161206881692A6941EA02218161DA
:101E1000D2E7206801F0C6FC2068C16941F00801E2
:101E2000C1612068C16921F00401C1612068C169F4
:101E30002A69114311E0206801F0E8FC2068C169BB
:101E400041F40061C1612068C16921F48061C16110
:101E50002068C1692A6941EA0221C161ACE710B575
:101E6000040003D094F83D0010B107E0012010BD3C
:101E7000002084F83C00204600F01EF8022084F880
:101E80003D00211D206801F0A3FB012084F84600DD
:101E900084F83E0084F83F0084F8400084F8410054
:101EA00084F8420084F8430084F8440084F8450034
:101EB00084F83D00002010BD7047704710B50446FF
:101EC000022249B104290ED0082913D094F8410008
:101ED000012816D0012010BD94F83E000128F9D148
:101EE00084F83E200FE094F83F000128F2D184F8F6
:101EF0003F2008E094F840000128EBD184F840200E
:101F000001E084F841200122206801F0C5FB164958
:101F10002068164A884201D0904203D1436C43F4B2
:101F2000004343642068884213D0B0F1804F10D042
:101F30000F4988420DD00F4988420AD00E49884285
:101F400007D0904205D00D49884202D00C49884202
:101F500004D1816801F00701062903D0016841F02E
:101F600001010160002010BD00000140000401409B
:101F70000004004000080040000C00400040014008
:101F8000001800402DE9F00307686B48874203D131
:101F9000BDE8F003FEF790BF684842F2107806688B
:101FA0006748B742B0F908C011D1716A414502D201
:101FB0000CF1010C04E0716A414503D9ACF1010C4C
:101FC000A0F808C0C6F82480BDE8F00370475D495A
:101FD0000D685B49AF42B1F9A0900FD1696A4145E4
:101FE00002D209F1010104E0696A414503D9A9F16E
:101FF0000101A0F8A010C5F82480E5E752490B685C
:102000004F499F42B1F938210DD1596A414501D25A
:10201000521C03E0596A414502D9521EA0F83821EA
:10202000C3F82480D0E749490C684549A742B1F973
:10203000D0110DD1626A424501D2491C03E0626AA7
:10204000424502D9491EA0F8D011C4F82480BBE74C
:10205000DFF8FC80D8F800804745B5D1776AD6F81C
:102060002C80F66AA7EB58073FB20CFB06FC07EB87
:102070005C0646600768F71B00EE107AF8EEC00AAF
:102080009FED340A80EE801ADFED330A21EE201A2C
:1020900080ED031A06606E6AEF6AED6AA6EB5706DA
:1020A00037B209FB05F607EB5605C0F89C50D0F88F
:1020B0009860AE1B01EE106AF8EEC11A81EE801A2C
:1020C00021EE201A80ED291AC0F898505D6ADE6A68
:1020D000DB6AA5EB56052DB25A4305EB5202C0F858
:1020E0003421D0F83031D31A01EE103AF8EEC11A8B
:1020F00081EE801A21EE201A80ED4F1AC0F83021AF
:10210000626AE36AA2EB5302E36A12B2594302EB3A
:102110005101C0F8CC11D0F8C8218A1A01EE102A5A
:10212000B8EEC11AC1EE001A21EEA00A80ED750AC0
:10213000C0F8C81148E7000000140040D80600208D
:10214000840100202007002068070020B00700203D
:10215000400800200000A5440080BB457047704740
:1021600070470000F8B5016804460868CA684B6902
:1021700010F00F0F4FF0000559D003F0010602F4E4
:102180009077374365D0C10705D0D10503D5216CC1
:1021900041F001012164410705D5D90703D0216C25
:1021A00041F002012164810705D5D90703D0216CD4
:1021B00041F004012164010707D502F020013143F9
:1021C00003D0216C41F008012164216C00293AD030
:1021D000800604D5900602D5204601F0C0FB206899
:1021E0004069216CC0F38010090700D460B3204619
:1021F00001F08EFB20684069400621D5206814302C
:1022000050E8001F21F0400140E80012002AF5D1FB
:10221000A06BA8B16C490165A06BFEF7FDFB00281F
:1022200011D0A06B016D01B0BDE8F04008478306F6
:102230000FD593060DD52046BDE8F84001F08FBBC1
:102240002046FFF78DFFF8BD2046FFF789FF256484
:10225000F8BD266B2023012E79D1C60677D5D60688
:1022600075D50868486800904869400640D5A16B5C
:10227000086840680004000CEAD0A28D8242E7D9C9
:10228000E085C869B0F5807F2DD020680C3050E81B
:10229000001F21F4807140E80012002AF5D1206867
:1022A000143050E8001F21F0010140E80012002A1C
:1022B000F5D12068143050E8001F21F0400140E8BB
:1022C0000012002AF5D184F83E30256320680C30D6
:1022D00050E8001F21F0100140E80012002AF5D15B
:1022E000A06BFEF750FBA08DE18D401A81B229E072
:1022F000A08DE18D401A81B2E08D0028A8D0002980
:10230000A6D020680C3050E8002F22F4907240E8EC
:102310000026002EF5D12068143050E8002F22F05E
:10232000010240E80026002EF5D184F83E302563F6
:1023300020680C3050E8002F22F0100240E8002303
:10234000002BF5D12046FFF70AFFF8BDFFE7050691
:102350002BD5150629D594F83D002128F5D1A06884
:10236000B0F5805F01D12069B0B1206A411C2162C3
:10237000216800784860E08C401E0004000CE08476
:10238000E3D12068C16821F08001C1602068C16884
:1023900041F04001C160D8E7206A0088C0F308001E
:1023A0004860206A801C2062E5E74006CDD55006D3
:1023B000CBD5CA68204622F04002CA6084F83D307E
:1023C00000F0C6F9C1E700000139000870B504004B
:1023D00004D094F83D00002510B106E0012070BD46
:1023E00084F83C50204600F023F8242084F83D0077
:1023F0002068C16821F40051C160204601F010FB43
:102400002068016921F4904101612068416921F04F
:102410002A0141612068C16841F40051C16025640E
:10242000202084F83D0084F83E00002070BD0000AC
:10243000F0B587B0064614216846FEF71EF85749E6
:102440005548D6F800C00024544A10390223032509
:1024500084451FD1106840F400201060106800F41B
:1024600000200590086840F004000860086869468C
:1024700000F004000590A8028DE8390008200490BF
:102480004748FEF715FC002205213420FEF7ACFD7D
:1024900034203BE04348072784453BD13F48001D9B
:1024A000026842F010020260006800F0100005901F
:1024B000086840F0010008600868694600F0010003
:1024C00005904FF4C0608DE8B9003748FEF7F0FB87
:1024D000374D364828604FF0006068604020C5E9FD
:1024E00002040001C5E90404AC61EC612C622846D9
:1024F0006C62FEF773FB08B1FEF73EFA75630022CB
:1025000005212520AE63FEF76FFD2520FEF75EFD59
:1025100007B0F0BD274E2848B4451CD1166846F4D4
:1025200000361660126802F4003205920A6842F022
:1025300008020A60096801F00801059160218DE830
:10254000BA006946FEF7B4FB002205212620FEF7FB
:102550004BFD2620DAE7194EB445D9D1166846F46A
:1025600080261660126802F4802205920A6842F002
:1025700008020A60096801F0080105914FF44071F2
:102580008DE8BA006946FEF793FB0022052127205B
:10259000FEF72AFD2720B9E7004C004040380240F2
:1025A000000802400010014000000240B8640240F0
:1025B0009809002000440040000C02400048004000
:1025C00090F83E30202B0ED159B152B190F83C30EA
:1025D000012B08D0012380F83C300023036301F075
:1025E000A5BA0120704702207047000010B50446CC
:1025F0004848844206D100F0C1F8012246494548C6
:10260000FFF7DEFF4548844275D14548454B464AB1
:102610000078464946280ED0B3EE090A472810D064
:102620004B2815D0B3EE0E0A48281AD04A281FD0DE
:10263000492826D034E0107810B3012010701860BB
:102640002EE01078E0B1D1ED000A30EE800A05E00E
:102650001078A8B1D1ED000A30EEC00A81ED000A71
:102660001EE0107860B1D1ED010A30EE800A05E07D
:10267000107828B1D1ED010A30EEC00A81ED010ACF
:102680000EE000201860107091ED030ABCEEC00A45
:1026900081ED190A91ED040ABCEEC00A81ED1A0A17
:1026A00091ED000A10EE100AB0F1844F02DC9FEDAC
:1026B000200A06E010EE100A1E4A904201DB9FED50
:1026C0001E0A1E4A81ED000A91ED010A10EE100A61
:1026D000904202DC9FED1A0A06E010EE100A194A39
:1026E000904201DB9FED180A012281ED010A0C499D
:1026F0000A48FFF765FF1548844209D100F084F8C5
:1027000007490122BDE81040491C1048FFF758BF97
:1027100010BD000088080020B5000020CC08002073
:102720000D0000200400002000000020C800002050
:10273000000000420000AA420000AA4200004042FD
:10274000000040420000D2420000D24210090020A6
:102750007047FEE710B5012001F080FAFBE70000AA
:10276000012204490448FFF72BFF022001F076FA0A
:10277000FBE70000B50000208808002010B51E48C7
:102780001D49491E03781D480A788354521CD2B251
:102790000A7004780023552C2BD10B2A2AD34278B7
:1027A000532A26D1428800EE102A00F1FC02F8EEEE
:1027B000400A9FED130A20EE801ADFED120A21EE87
:1027C000201A82ED001A848801EE104AB8EE411AF0
:1027D00021EE001A21EE201A82ED021AC08801EEC5
:1027E000100AB8EE411A21EE000A20EE200A82ED0E
:1027F000010A0B7010BD0000B5000020304700201A
:10280000000034430000003830B511481149124C23
:102810000378801E027841F82230521CD3B2037034
:102820000D680022FF2D02D00270227030BD042BF3
:10283000FCD301EB830353F8043CEE2B06D1074B8A
:102840000D791D72097A597201212170027030BD13
:102850000E000020E403002000000020C80000203B
:10286000094808B5016841F4800101600068002250
:1028700000F48000009005214620FEF7B5FBBDE87E
:1028800008404620FEF7A2BB3038024010B5CEB05B
:102890001C223C496846FDF7BEFD0021684601F058
:1028A000E9F9394C37491C2220601C3107A8FDF793
:1028B000B2FD002107A801F0DDF9324960601C2259
:1028C00038310EA8FDF7A7FD00210EA801F0D2F9BE
:1028D0002C49A0601C22543115A8FDF79CFD002155
:1028E00015A801F0C7F92749E0601C2270311CA827
:1028F000FDF791FD00211CA801F0BCF921492061E0
:102900001C228C3123A8FDF786FD002123A801F0AD
:10291000B1F91C4960611C22A8312AA8FDF77BFD92
:1029200000212AA801F0A6F91649A0611C22C43191
:1029300031A8FDF770FD002131A801F09BF9114984
:10294000E0611C22E03138A8FDF765FD002138A8C0
:1029500001F090F90B4920621C22FC313FA8FDF7E1
:102960005AFD00213FA801F085F960621C22074949
:1029700046A8FDF750FD002146A801F07BF9A062B2
:102980004EB010BDDC4A000810000020F44B0008D7
:102990002DE9F04F87B014216846FDF76EFD4B48D6
:1029A0000024016841F010010160016801F010018C
:1029B0000591016841F020010160016801F02001EA
:1029C0000591016841F080010160016801F080011A
:1029D0000591016841F004010160016801F0040102
:1029E0000591016841F001010160016801F00101F8
:1029F0000591016841F002010160016801F00201E6
:102A00000591016841F008010160016801F00801C9
:102A10000591016841F0400101600068DFF8B08075
:102A200000F040004FF40075059000222946404612
:102A3000FEF736FADFF89C9000220F214846FEF799
:102A40002FFADFF894A0AE01002231465046FEF77F
:102A500027FADFF888B02F01002239465846FEF7E2
:102A60001FFA1020CDE9000469461D480294FEF7C4
:102A70001FF900950125CDE90154694640460394AC
:102A8000FEF716F90F200090CDE90154694648463B
:102A90000394FEF70DF90096CDE9015469465046BE
:102AA0000394FEF705F90220CDE90250CDE9007547
:102AB00069465846FEF7FCF8A8038DE831006946E0
:102AC0005846FEF7F5F807B0BDE8F08F3038024001
:102AD00000140240000802400000024000180240BA
:102AE000001002400B4810B509490160A721416060
:102AF00000210922C0E9021201618161FEF7DAFDBD
:102B0000002803D0BDE81040FDF736BF10BD00001F
:102B100000480140F80700201FB50021104800912F
:102B2000019102910D4A03910260A722C0E901219F
:102B300042F21072C0E903218161FEF7BBFD08B1CA
:102B4000FDF71AFF4FF48050009069460448FEF7E5
:102B50006BFE002801D0FDF70FFF1FBD00180040DD
:102B60004008002010B596B000240F9410941194E2
:102B7000129413941C2168461494FDF77EFC2021C6
:102B800007A8FDF77AFC354833490160A721C0E961
:102B9000011442F21071C0E903148021C0E905411B
:102BA000FEF788FD08B1FDF7E7FE4FF480500F9067
:102BB0000FA92A48FEF738FE08B1FDF7DDFE2748C9
:102BC000FFF74DF908B1FDF7D7FE139413A9234879
:102BD0001494FEF727FD08B1FDF7CEFE6020CDE985
:102BE00000040294039404940594002269461B484F
:102BF0000694FFF7CEF808B1FDF7BEFE0422694641
:102C00001648FFF7C6F808B1FDF7B6FE0822694678
:102C10001248FFF7BEF808B1FDF7AEFE0C22694678
:102C20000E48FFF7B6F808B1FDF7A6FE0794089422
:102C300009944FF400500A94CDE90B4007A90748C6
:102C40000E94FEF7C5FC08B1FDF796FE0348FFF7AA
:102C50005DF816B010BD00000000014048060020DD
:102C600010B58EB000240794089409940A940B942C
:102C70001C2168460C94FDF700FC22484FF080416F
:102C800001605321C0E9011444F61F61C0E9031437
:102C900080218161FEF70EFD08B1FDF76DFE4FF456
:102CA0008050079007A91748FEF7BEFD08B1FDF751
:102CB00063FE1448FFF7D3F808B1FDF75DFE0B94EF
:102CC0000BA910480C94FEF7ADFC08B1FDF754FEBB
:102CD0006020CDE900040294042269460948049466
:102CE000FFF757F808B1FDF747FE08226946054887
:102CF000FFF74FF808B1FDF73FFE0248FFF706F86F
:102D00000EB010BD9006002010B58CB0242168468E
:102D1000FDF7B3FB00241648099414490A94C0E94E
:102D2000001444F62061C0E9024180210461816100
:102D30000120CDE90004CDE902040494CDE9054069
:102D4000079469460A480894FEF7DCFD08B1FDF7D0
:102D500013FE099409A906480A94FEF763FC0028AB
:102D600001D0FDF709FE0CB010BD000000040040CA
:102D7000D806002010B58CB024216846FDF77DFBF5
:102D800000241648099414490A94C0E9001444F632
:102D90002061C0E902418021046181610120CDE907
:102DA0000004CDE902040494CDE905400794694686
:102DB0000A480894FEF7A6FD08B1FDF7DDFD099469
:102DC00009A906480A94FEF72DFC002801D0FDF75A
:102DD000D3FD0CB010BD000000080040200700200B
:102DE00010B58CB024216846FDF747FB0024164837
:102DF000099414490A94C0E9001444F62061C0E91A
:102E000002418021046181610120CDE90004CDE906
:102E100002040494CDE90540079469460A480894E1
:102E2000FEF770FD08B1FDF7A7FD099409A9064852
:102E30000A94FEF7F7FB002801D0FDF79DFD0CB0CA
:102E400010BD0000000C00406807002010B58CB0D9
:102E500024216846FDF711FB002416480994144903
:102E60000A94C0E9001444F62061C0E902418021BF
:102E70000461C0E905410120CDE90004CDE9020467
:102E80000494CDE90540079469460A480894FEF782
:102E900039FD08B1FDF770FD099409A905480A94A8
:102EA000FEF7C0FB002801D0FDF766FD0CB010BD99
:102EB00000040140B00700200C4810B50A49016029
:102EC0004FF416514160002181600C22C160C0E9BD
:102ED00004128161C161FFF779FA002803D0BDE8CF
:102EE0001040FDF749BD10BD004C0040880800208F
:102EF0000C4810B50A4901604FF4E13141600021EE
:102F000081600C22C160C0E904128161C161FFF7D8
:102F10005DFA002803D0BDE81040FDF72DBD10BDBF
:102F200000100140CC0800200C4810B50A4901608F
:102F30004FF416514160002181600C22C160C0E94C
:102F400004128161C161FFF741FA002803D0BDE896
:102F50001040FDF711BD10BD0044004010090020D5
:102F60000C4810B50A4901604FF416514160002128
:102F700081600C22C160C0E904128161C161FFF768
:102F800025FA002803D0BDE81040FDF7F5BC10BDC0
:102F90000048004054090020FEE7052000F05EFED6
:102FA000FBE7000070B5104D0024286844630F4E05
:102FB000224601213046FDF773FF28688463002212
:102FC00002213046FDF76CFF2868C463002204210B
:102FD0003046FDF765FF286804643046BDE8704060
:102FE00000220821FDF75CBF4806002000080240CF
:102FF00010B500212248FEF761FF04212048FEF7AA
:103000005DFF08211E48FEF759FF0C211C48FEF702
:1030100055FF3C211B48FEF77DFD1A480168CA6830
:1030200042F00102CA60006842F2107444623C211E
:103030001548FEF76FFD14490868C26842F00102A6
:10304000C260086844623C211048FEF763FD0F49E6
:103050000868C26842F00102C260086844623C210C
:103060000B48FEF757FD0A490868C26842F00102A2
:10307000C26008684462BDE810400648FEF794BB91
:1030800048060020D80600202007002068070020FE
:10309000B007002040080020FEE70A2000F0DEFD17
:1030A000FBE700000E490F4B002809680BDB02DC30
:1030B0004FF0000004E041F63802904200DB104679
:1030C0004863002208E0084A904200DC104642F2C1
:1030D000107210444863012201211846FDF7E0BE3A
:1030E0004806002000080240C8E7FFFF0E490F4BCA
:1030F000002809680BDB02DC4FF0000004E041F619
:103100003802904200DB10468863002208E0084A3B
:10311000904200DC104642F2107210448863012293
:1031200002211846FDF7BCBE4806002000080240F8
:10313000C8E7FFFF0E490F4B002809680BDB02DCD4
:103140004FF0000004E041F63802904200DB1046E8
:10315000C863002208E0084A904200DC104642F2B0
:1031600010721044C863012204211846FDF798BE6E
:103170004806002000080240C8E7FFFF0E490F4B39
:10318000002809680BDB02DC4FF0000004E041F688
:103190003802904200DB10460864002208E0084A2A
:1031A000904200DC104642F2107210440864012282
:1031B00008211846FDF774BE4806002000080240AA
:1031C000C8E7FFFF00B50346B0EE412A283000F003
:1031D0001BF893ED110AF0EE420A184600F014F8BD
:1031E00093ED070A83ED140A00BD0000C0ED061A36
:1031F00080ED082A80EC030A9FED020A80ED090A9F
:10320000704700000000000030EE601AD0ED031A95
:10321000C0ED041AB5EEC01AF1EE10FA02DBB0EE02
:10322000410A01E030EEC00AD0ED090AB4EEE00A2E
:10323000F1EE10FA04D29FED2C0A80ED030A01E0B2
:1032400080ED031AD0ED030A90ED021A10EE901AE9
:1032500030EEE10A254A914220EE011A90ED000A73
:1032600000EE801A80ED071A04DC10EE901A204A56
:10327000914220D990ED050AD0ED011A00EEA10A85
:1032800080ED050AD0ED060AF1EE601AB4EEE10A0F
:10329000F1EE10FA02D8B0EE610A06E0B4EEE00AF0
:1032A000F1EE10FA01DBB0EE600A80ED050A31EEB6
:1032B000000A80ED070A90ED080AD0ED070AB1EE8A
:1032C000401AF4EEC10AF1EE10FA02D8B0EE410A4B
:1032D00006E0F4EEC00AF1EE10FA01DAB0EE600A90
:1032E00080ED070A70470000000000000000A040C9
:1032F0000000A0C000F064F8DFF8B8802E4C2F4F1B
:1033000040F2DC5540F6C4194FF47A764FF4FA6A6D
:1033100098F8000030B3207A00EE100A2648F8EE44
:10332000400A94ED000A1430FFF76EFF607A00EE59
:10333000100A2148F8EE400A94ED010A3C30FFF7EC
:1033400063FF94ED030AD4ED0C0A30EE200ABCEEC4
:10335000C00A84ED190A94ED040AD4ED160A30EE81
:10336000200A07E094ED030ABCEEC00A84ED190AB6
:1033700094ED040ABCEEC00A84ED1A0A606EA842FD
:1033800001D8284602E0484500D3484610EE101AFE
:103390006066B14201D8314602E0514500D3514642
:1033A000A166396888633968A06EC8630A2000F096
:1033B00055FCADE700000020C8000020900600206A
:1033C00010B5284C9FED260A4FF416602DED048BA6
:1033D000042184ED030A9FED240A84ED040A60664B
:1033E0004FF4E1609FED210AA06684ED000A9FED95
:1033F000200A204884ED010AFEF760FD08211D48DF
:10340000FEF75CFD1B48616E026891630068A16E67
:10341000C1639FED198ADFED198A9FED199AB0EE0D
:10342000482AF0EE681AB0EE491ADFED160AB0EE3F
:103430000C0A04F11400FFF7D9FEB0EE482AF0EEB2
:10344000681AB0EE491ABDEC048B04F13C00B0EEF2
:103450000C0ABDE81040DFED0C0AFFF7C7BE000004
:1034600000001645C80000200000E1440000704242
:10347000000094429006002000401C45000000001F
:103480000000A042A69B443B6F12833A012000F04B
:10349000E5FBFBE710B5502080F31188BFF34F8F99
:1034A000BFF36F8F01F066F818B104494FF08050F8
:1034B0000860002080F3118810BD000004ED00E0DA
:1034C00030B593B030216846FCF7D7FF14210CA823
:1034D000FCF7D3FF1D480025016841F080510160D1
:1034E000006800F0805011901948016841F4804153
:1034F00001600068022400F48040119001200090D7
:10350000000401908001CDE9064008AA0420A8210A
:1035100082E813000B906846FDF7A2FE08B172B670
:10352000FEE70CA90F2081E831004FF4A0500F9066
:103530004FF48050109005210CA8FDF787FD00285E
:1035400001D072B6FEE713B030BD00004038024033
:10355000007000400248016841F47001016070474A
:1035600088ED00E010B500F015FB0448FEF71AFBEB
:10357000BDE810400248FEF715BB000048060020D9
:10358000F80700200148FEF70DBB0000D806002018
:103590000148FEF707BB0000200700200148FEF7A6
:1035A00001BB0000680700200148FEF7FBBA0000DD
:1035B000F809002010B50448FEF7F4FABDE8104001
:1035C0000248FEF7EFBA0000B007002040080020D4
:1035D000F0B50268254C264D264E274F274B4FF05D
:1035E000804CA04209D0604507D0A84205D0B04227
:1035F00003D0B84201D0984204D122F0700E4A683C
:1036000042EA0E02A0421BD0604519D0A84217D052
:10361000B04215D0B84213D0984211D0184DA842EC
:103620000ED0184DA8420BD0174DA84208D0174D08
:10363000A84205D0164DA84202D0164DA84203D18B
:1036400022F44075CA682A434D6922F080022A4359
:1036500002608A68C2620A688262A04201D098420F
:1036600001D10969016301214161F0BD0000014000
:103670000004004000080040000C0040000401402D
:103680000040014000440140004801400018004053
:10369000001C00400020004010B501F01F03012174
:1036A000046A99408C430462016A9A4011430162A2
:1036B00010BD10B5846842EA032224F47F440A4313
:1036C0002243826010BD826822F070020A4342F0F9
:1036D0000701816070470000F0B5026A22F0010224
:1036E0000262036A42688469124E24F073050C6812
:1036F0002C4323F002058B682B430D4DA84201D0CB
:10370000B04205D123F00807CB683B4323F0040304
:10371000A84201D0B04205D14D6922F44072154350
:103720008A692A4342608461496841630362F0BD4B
:103730000000014000040140F0B5026A22F01002CE
:103740000262026A436884690D6824F4E64444EA2C
:1037500005248D6822F0200242EA05120F4D104E1A
:10376000A84201D0B04206D1CF6822F0800242EADE
:10377000071222F04002A84201D0B04207D14D69A1
:1037800023F4406343EA85038D6943EA850343607C
:103790008461496881630262F0BD0000000001405D
:1037A00000040140F0B5026A22F480720262026AEB
:1037B0004368C46922F4007224F073050C68124E49
:1037C0002C438D6842EA05220E4DA84201D0B0423A
:1037D00006D1CF6822F4006242EA072222F4806216
:1037E000A84201D0B04207D14D6923F4405343EAC7
:1037F00005138D6943EA05134360C4614968C163D9
:103800000262F0BD000001400004014030B5026AD0
:1038100022F480520262046A4268C3690D6823F48C
:10382000E64343EA05238D6824F4005444EA053452
:10383000084DA84202D0084DA84204D14D6922F497
:10384000804242EA85124260C361496801640462B1
:1038500030BD0000000001400004014010B5036AC3
:10386000046A24F001040462846924F0F00444EA48
:10387000021423F00A020A438461026210BD10B5EB
:10388000036A23F0100303628369046A23F470431C
:1038900043EA023224F0A00343EA0111826101628B
:1038A00010BD000018B50C48006801680B4A890675
:1038B00005D543680A4C11886354491C118001687E
:1038C000C90607D50168002340680090044800F04D
:1038D00009F8138018BD000054090020B80000202A
:1038E000384800208088024940BA4880704700006C
:1038F000B80000200148FEF735BC00008808002011
:1039000010B5806B0021C185C184FEF729FC10BD74
:1039100001680C3151E8002F22F4907241E8002335
:10392000002BF5D10168143151E8002F22F001027B
:1039300041E80023002BF5D1016B012909D1016871
:103940000C3151E8002F22F0100241E80023002B37
:10395000F5D1202180F83E1000210163704708B5A1
:1039600090F83E10222901D0022008BD82684FF451
:1039700080539A4201D1016921B1816A9A421BD0D8
:103980004AB10AE00268816A5268C2F308020A80FA
:10399000816A891C08E0026972B10268526802F00B
:1039A0007F020A70816A491C8162C18D491E090427
:1039B000090CC18503D019E002685268F1E701687B
:1039C000CA6822F02002CA600168CA6822F48072C4
:1039D000CA6001684A6922F001024A61202180F828
:1039E0003E10016B012903D0FEF700FE002008BD48
:1039F0000021016301680C3151E8002F22F0100210
:103A000041E80023002BF5D101680A68D20602D5EF
:103A10000A6849680091818DFEF7A1FBE6E7000086
:103A200070B5044600680169E26821F44051114311
:103A300001612169A068E269084361691143084393
:103A40002168CA6849F20C639A430243CA6020683D
:103A50004169A26921F440711143416131492068F3
:103A6000884202D03049884202D1FDF7B9FB01E01B
:103A7000FDF7A6FBE2690023192164253226B2F581
:103A8000004F626828D0A0FB0101930F9200FCF761
:103A90004BFC0146B0FBF5F06FF01802504301EB10
:103AA000800006EB0010B0FBF5F000F0F002B1FB77
:103AB000F5F002EB0012B1FBF5F06FF0180358437C
:103AC00001EB800006EB0010B0FBF5F000F00F00FA
:103AD00021681044886070BDA0FB010192185B4111
:103AE000FCF722FC0146B0FBF5F00201B1FBF5F05A
:103AF0006FF01803584301EB800006EBC000B0FBE9
:103B0000F5F000F0F80002EB4002B1FBF5F058438D
:103B100001EB800006EBC000B0FBF5F000F0070001
:103B2000D6E7000000100140001401408162828548
:103B3000C28500210164222280F83E2080F83C10DA
:103B4000016921B10168CA6842F48072CA600168E3
:103B50004A6942F001024A610068C16841F02001EF
:103B6000C1600020704700000148FEF7FBBA00006A
:103B7000CC0800200148FEF7F5BA0000100900202B
:103B800010B5FFF78FFEBDE810400148FEF7EABA16
:103B90005409002010B59FED070B084C53EC102B77
:103BA00094ED000B51EC100B00F0ACFDC4E90001EA
:103BB00010BD0000F168E388B5F8E43EC0000020C5
:103BC000FEE70907090E002804DB00F1E02080F879
:103BD0000014704700F00F0000F1E02080F8141D81
:103BE00070470000FDF770F9FFF76AFCFEF7D0FEA2
:103BF000FEF736FEFFF734F8FFF77AF9FFF794F98E
:103C0000FFF7AEF9FEF7AEFFFFF77EF8FFF7B2F869
:103C1000FEF782FFFFF7E4F8FFF718F9FEF762FFFF
:103C2000FFF74AF9012207490748FEF7C9FC054991
:103C30000122491C0548FEF7C3FCFEF727FE00F0F1
:103C400014F8FEE70D000020CC0800201009002029
:103C500001460020842900D0C81C704710B500B967
:103C6000012000F023FB002010BD10B500F044FB44
:103C7000002010BD7FB50D4604464169B0F908002B
:103C800081B1A16971B1FFF7E3FFD4E905128DE8B5
:103C90000700D4E900102B46226900F040FC039095
:103CA00004B070BDFFF7D4FF03A9CDE90001208A5D
:103CB0002B4682B2D4E9001000F004FC012801D0A8
:103CC0000020EDE70398EBE72DE9F041184C0F4693
:103CD0000546E6682068001D00F020FA38B9206823
:103CE00090F82C1001208840216981432161681CD3
:103CF00007D137B12168BDE8F0410E48091D00F039
:103D000051BA20683544B5424560216805D2A06BA0
:103D1000BDE8F041091D00F02DBA606B091D00F0EF
:103D200029FAA06A854200D2A562BDE8F0810000B0
:103D30004C0000201C0B00202DE9F041054600F04E
:103D40003DFA2E4CA068401CA06020682C4F10B19A
:103D5000606940B32DE02560A068012829D10026C4
:103D600006EB860007EB800000F0F6F9761C072EC4
:103D7000F6D323488C3000F0EFF92148A03000F052
:103D8000EBF91F48B43000F0E7F91D48C83000F0E7
:103D9000E3F91B48DC3000F0DFF919488C30606330
:103DA0001430A06305E02068E96AC06A884200D840
:103DB0002560606A401C6062E96A012022698840CF
:103DC0001043206101EB810007EB8000291D00F00A
:103DD000E9F900F013FA606900280CD02068E96A5C
:103DE000C06A884207D207494FF080500860BFF38D
:103DF0004F8FBFF36F8FBDE8F08100004C000020B3
:103E0000400A002004ED00E010B5044690F851008F
:103E100058B101280CD002280FD0502080F311880F
:103E2000BFF34F8FBFF36F8FFEE7206B00F0FAF9FF
:103E30002046BDE8104000F0F5B910BD10484FF421
:103E40007051420706D0C01D0D4920F00700411AED
:103E5000C1F570510B4A00230144C2E9000308393F
:103E6000183A21F0070111604B600B600B1AC0E992
:103E7000001393604FF000405360506170470000A2
:103E8000300B0020A0000020144E154CA6F1C807EE
:103E90004FF08058DFF84C9012E000BF00F08EF930
:103EA000F068C568281D00F039F9A068401EA060C0
:103EB0006068401E606000F0A1F92846FFF7A4FF8B
:103EC00060680028EAD138680128F9D9C9F800806B
:103ED000BFF34F8FBFF36F8FF2E70000080B002096
:103EE0004C00002004ED00E02DE9F0479A46DDE9A2
:103EF000098481466FF00303206B03EB82021044B8
:103F0000089E20F00707780707D0502080F311881B
:103F1000BFF34F8FBFF36F8FFEE7002561B1002025
:103F200023180A5C83F834200A5C12B1401C102864
:103F3000F6D384F8435001E084F83450072E00D3C0
:103F40000626E662C4E91165201D00F010F904F1AF
:103F5000180000F00CF92461C6F107006462A0614A
:103F6000E56484F8505052464946384600F0C0F89F
:103F70002060B8F1000F01D0C8F80040BDE8F0871C
:103F800030B5114900E011460A688242FBD34B6804
:103F90005C18844203D1406818444860084643686E
:103FA0001C18944209D1084C183C2468A24209D03C
:103FB00052681A4442600A6812680260814200D066
:103FC000086030BD0460F9E7A00000200648416B9E
:103FD000096829B1416BC968C9684968816270473D
:103FE0004FF0FF31FAE700004C000020084840681D
:103FF000401C4FF0500080F3118804D0BFF34F8F66
:10400000BFF36F8FFEE7BFF34F8FBFF36F8FFEE7F6
:10401000A80000202DE9F0410546002700F0A2F994
:10402000324E306808B9FFF709FF706905424ED17A
:10403000C5B3083568070ED005F00700C0F10800C9
:104040000544680707D0502080F31188BFF34F8FD5
:10405000BFF36F8FFEE72DB37068854237D82348D2
:10406000183001460C6801E020460C466168A94200
:1040700002D221680029F7D131688C4227D0076825
:104080002168016060680837411B10290FD9601949
:10409000420708D0502080F31188BFF34F8FBFF341
:1040A0006F8FFEE713E041606560FFF769FF6168AD
:1040B0007068401A7060B268904200D2B060706957
:1040C00001430020C4E90001F068401CF06000F0EA
:1040D000B7FA780707D0502080F31188BFF34F8FCD
:1040E000BFF36F8FFEE73846BDE8F08188000020FF
:1040F00010B5031F4FF080741C601B1F21F00101DD
:104100001960191F044B0B6014390A60091F6FF006
:10411000020244380A6010BDED3F0008D0E90132C8
:1041200001699A60D0E901235A604A68824201D14C
:1041300082684A60002202610868401E08600868C0
:1041400070470000034B036003F1540008608020B7
:1041500010607047F403002000F108014FF0FF32B7
:10416000C0E90112C16001610021016070470021B6
:104170000161704730B50B685A1C02D000F108028B
:1041800002E0026904E02246546825689D42FAD99B
:1041900053684B6099608A60516008610168491CEE
:1041A000016030BD42684A6093688B6093685960D3
:1041B000916008610168491C01607047502080F3DC
:1041C0001188BFF34F8FBFF36F8F0A494868401CB7
:1041D000486001280CD10848006810F0FF0F07D094
:1041E000502080F31188BFF34F8FBFF36F8FFEE72E
:1041F00070470000A800002004ED00E0084948686E
:1042000028B1401E486001D180F3118870475020CA
:1042100080F31188BFF34F8FBFF36F8FFEE700006D
:10422000A800002070B500282AD0164DA0F108047F
:1042300060686969084207D1502080F31188BFF394
:104240004F8FBFF36F8FFEE722683AB1502080F3A3
:104250001188BFF34F8FBFF36F8FFEE78843606015
:1042600000F080F860686968084468602046FFF7DD
:1042700087FE2869401C2861BDE8704000F0E0B965
:1042800070BD0000880000204FF0E0200021016197
:10429000816105494FF47A720968B1FBF2F1491E58
:1042A00041610721016170474800002010B50200FC
:1042B00014D00F48006B38B1502080F31188BFF341
:1042C0004F8FBFF36F8FFEE700F04CF800211046D0
:1042D000FFF7FAFC00F0B4F9002807D105494FF0C8
:1042E00080500860BFF34F8FBFF36F8F10BD000089
:1042F0004C00002004ED00E010B586B000240394CB
:1043000005AA04A903A80494FFF71CFFDDE9030133
:104310000094CDE9011000230EA11048059A00F089
:10432000FEF80F490028C86211D0502080F3118890
:10433000BFF34F8FBFF36F8F4FF0FF3088620120C4
:104340004861CC6006B0BDE8104000F041B806B04E
:1043500010BD000049444C4500000000893E0008A3
:104360004C0000200248016B491C016370470000AB
:104370004C0000201448016B11B10121C16170474C
:104380000021C1610169B1FA81F1C1F11F0101EBA5
:1043900081020E4951F822306BB101EB820101F12B
:1043A00008034A6852684A609A4201D152684A60DA
:1043B000D16801607047502080F31188BFF34F8FA0
:1043C000BFF36F8FFEE700004C000020400A002082
:1043D0001CB537480168374A914207D1502080F315
:1043E0001188BFF34F8FBFF36F8FFEE7006831492D
:1043F000491E884207D1502080F31188BFF34F8FA8
:10440000BFF36F8FFEE72C4908780190FF200870FA
:1044100008788DF800009DF800009DF8002000F05D
:10442000F000904207D0502080F31188BFF34F8FE7
:10443000BFF36F8FFEE79DF80000204C00F05000A6
:1044400020700720A06005E09DF8002052008DF844
:104450000020401E9DF800201206F5D4A06003281D
:1044600007D0502080F31188BFF34F8FBFF36F8FB9
:10447000FEE74FF44070A060019808700C482030AF
:10448000016841F470010160016841F07041016010
:10449000FFF7FAFE00206060FBF7EAFE08480168BB
:1044A00041F040410160FBF7CFFE00201CBD000041
:1044B00000ED00E071C20F4100E400E0A800002020
:1044C00034EF00E02DE9FF5F8346DDE90E87994672
:1044D00016468A469000FFF79DFD05001CD054202B
:1044E000FFF798FD040014D00020256384F85100E4
:1044F000CDE90240CDE900874B4632465146584649
:10450000FFF7F2FC2046FFF717FC012004B0BDE8DE
:10451000F09F2846FFF786FE4FF0FF30F6E7F0B534
:1045200085B0DDE90B640A9DA6B1DCB15427009784
:104530002663022684F85160002604AFCDE90246C6
:10454000CDE90057FFF7D0FC2046FFF7F5FB0498B4
:1045500005B0F0BD502080F31188BFF34F8FBFF33B
:104560006F8FFEE7502080F31188BFF34F8FBFF3AA
:104570006F8FFEE72DE9F0412F4C0026206B28B10C
:10458000A069401CA0613046BDE8F081E5686D1C63
:10459000E56013D1606B006838B1502080F311885A
:1045A000BFF34F8FBFF36F8FFEE7606BA16B61634B
:1045B000A063206A401C2062FFF708FDA06ADFF8B4
:1045C0007C80854209D3606B0068A0B1606BC068D5
:1045D000C7687868854211D2A0622068C06A00EB83
:1045E000800158F82100012800D90126E06900283F
:1045F000C9D00126C7E74FF0FF30EDE7381DFFF7C0
:104600008DFDB86A18B107F11800FFF787FDF96A48
:104610000120226988401043206101EB810108EBF1
:104620008100391DFFF7BEFDF86A2168C96A88421A
:10463000C9D30126C7E700004C000020400A002033
:104640002DE9F0472C4D00242746286B38B1FFF7A1
:10465000B5FD286B401E2863286B40B146E0502012
:1046600080F31188BFF34F8FBFF36F8FFEE7A96808
:10467000224E0120D1B3A6F1B40980463068E8B1DA
:10468000F068C46804F11800FFF748FD201DFFF72B
:1046900045FDE06A2A6908FA00F11143296100EB3F
:1046A000800109EB8100211DFFF77CFDE06A29688C
:1046B000C96A8842E2D3C5F81C80DFE70CB1FFF776
:1046C00085FCAC6944B14646FFF754FF00B1EE618A
:1046D000641EF9D10020A861E86938B108490127B2
:1046E00038070860BFF34F8FBFF36F8FFFF786FD6A
:1046F0003846BDE8F08700004C000020F40A002096
:1047000004ED00E010B591EA030F48BF83F00043C9
:1047100000F1FC80841A71EB030C05D2121943EBF3
:104720000C03001B61EB0C01DFF824E14FEA11548C
:10473000A4EB135C1EEA430F18BF9EEA445F73D0DC
:1047400023EA0E03DCF1200E21EA045143F4801326
:1047500032D322FA0CFE10EB0E0023FA0CFE41EBD2
:104760000E01CCF1200E03FA0EFE10EB0E0051F1FB
:104770000001B1F5801FCCF1200E32D201EB0451C3
:1047800012FA0EF2BDE8104058BF7047401C38BF07
:104790005FEA420218BF7047002814BF20F00100F2
:1047A00041F100014FEA410313F5001F38BF704784
:1047B000A1F1C04100F09CB8012A43EB0302ACF127
:1047C000200CDCF11F0E32BF4FF0000E23FA0CF369
:1047D00010EB030041EB0451B4EB115FD0D0A1EB1F
:1047E000045101F5801149085FEA300001EB0451E2
:1047F0000ED350F1000038BF12FA0EFE08D1BDE80A
:104800001040C9E7401C38BF5FEA4202CAD1C3E783
:10481000BDE810404FEA410313F5001F38BF704751
:10482000A1F1C04100F064B89EEA445F08D011EAEB
:104830005E0FBDE8104004BF01F00041002070474A
:10484000BDE8104070B500F005F800BF64FBBE3E47
:104850000000E0FF0EF1020E2EF0030E5EF8046B76
:10486000364205D4012A43EB030515F5001F12D883
:10487000012841EB010C1CF5001F0CD80ED14FEAAA
:10488000D17C15F5001F0CEB4C0C0CF1020C08BF91
:104890004CEBD37C04E04FF0080C01E04FEAD37CF2
:1048A0000CEB4C0526FA05F606F00706B6F1040CEB
:1048B00006D20EEB860CBDE870404CF0010C604750
:1048C000DFE80CF0090B02024FF000414FF000004E
:1048D000A1F5002170BD19461046012851EB0104D5
:1048E00018BFD4F5001484BF002001F0004170BD52
:1048F0000808A0F500114FEA3101704710B591EAA0
:10490000030F48BF83F000433FF504AF841A71EBF7
:10491000030C07D212198CF0004C43EB0C03001B64
:1049200061EB0C01DFF8A4E14FEA1154A4EB135C36
:104930001EEA430F18BF9EEA445F00F0B08023EAEE
:104940006E03524221EA0451C3EB6E0338BF5B1E73
:10495000DCF1200E25D322FA0CFE10EB0E0043FAF8
:104960000CFE41EB0E01CCF1200E03FA0EFE10EB13
:104970000E0051F10001CCF1200E29D412FA0EF2F2
:1049800001EB0451BDE8104058BF7047401C1CBFEC
:10499000B2F1004F704700280CBF491C20F0010005
:1049A000704712EB020E43EB030218BF4FF0010EEB
:1049B0004EEA4202ACF1200CDCF11E0E54D943FA4F
:1049C0000CFE10EB0E0051F1FF31CCF11E0ED5D5CF
:1049D0000EF1010E12FA0EFE404141EB010101EB16
:1049E000445C5FEA5C5C10D910EBDE7001EB0451B3
:1049F00038BFBEF1004FBDE8104018BF7047002817
:104A00000CBF491C20F00100704730D24FEAD42C73
:104A100011F5001124F400641BD0B1FA81F20B3AB5
:104A2000A41AA41ED2F12003914030FA03F31943D3
:104A3000904001EBCC71002C01EB0451BDE810401B
:104A4000A8BF704701F1C0414FF0000001F00041E4
:104A50007047B0FA80F310FA03F100D110BDE41AE8
:104A6000173C4805C90AE4E701EB045110BD4910A1
:104A700001EB0451BDE810404FEA300002E04FF076
:104A8000000170474A0008BF0042F8D0B2F5001F8D
:104A900028BF704701F000414FF0000070479EEAC8
:104AA000445F07D011EA5E0FBDE8104004BF00214B
:104AB00000207047BDE8104070B5FFF7CBFE00BF87
:104AC00040DFF63E83F00041104670470000E0FFF3
:104AD0004FF04070E1EE100A70470000A44C00084F
:104AE0008D3400080000000000000000800000007D
:104AF0000000000000000000804C0008F5320008B3
:104B00000000000000000000800000000000000025
:104B100000000000704C0008430500080000000081
:104B20000000000080000000000000000000000005
:104B3000B04C00084D050008000000000000000017
:104B40008000000000000000000000003C4C000855
:104B50005527000800000000000000008000000051
:104B60000000000000000000444C00089B300008DA
:104B700000000000000000008000000000000000B5
:104B8000000000008C4C00089B2F00080000000073
:104B90000000000080000000000000000000000095
:104BA000984C0008AD05000800000000000000005F
:104BB000800000000000000000000000304C0008F1
:104BC00061270008000000000000000080000000D5
:104BD0000000000000000000504C000855090008CB
:104BE0000000000000000000800000000000000045
:104BF00000000000604C00087D0900080000000073
:104C00000000000080000000000000000000000024
:104C1000000610160006101600000000000000003C
:104C20000102030406070809000000000102030452
:104C30004A593930315461736B000000494D555465
:104C400061736B004F6C65645461736B000000000E
:104C500044697374616E63655461736B0000000096
:104C600046696E664C696E655461736B00000000A6
:104C7000426C756574656574685461736B000000FF
:104C8000536572766F5461736B0000004D6F746FE3
:104C9000725461736B0000004368617373697354ED
:104CA00061736B0064656661756C745461736B004D
:104CB0004368616E67536C6F775461736B000000DB
:104CC000E04C000800000020C8000000C4010008FB
:104CD000A84D0008C8000020E04D0000E0010008D9
:104CE00001000000000000000000000000000000C3
:104CF00000000000000000000000000000000000B4
:104D000000000000000000000000000000000000A3
:104D10000000000000000000000000000100000092
:104D200010000000000000000024F400000000005B
:104D30000000000000000000000000000000000073
:104D40000000000000000000000000000000000063
:104D50000000000000000000000000000000000053
:104D60000000000000000000000000000000000043
:104D70000000000000000000000000000000000033
:104D8000000000000000000000000000AAAAAAAA7B
:104D90000000000000000000000000000000000013
:084DA00000000000000000000B
:040000050800018965
:00000001FF
